{
  "_format": "hh-sol-artifact-1",
  "contractName": "CattyInu",
  "sourceName": "contracts/CattyInu.sol",
  "abi": [
    {
      "inputs": [],
      "stateMutability": "nonpayable",
      "type": "constructor"
    },
    {
      "inputs": [],
      "name": "ERC721EnumerableForbiddenBatchMint",
      "type": "error"
    },
    {
      "inputs": [
        {
          "internalType": "address",
          "name": "sender",
          "type": "address"
        },
        {
          "internalType": "uint256",
          "name": "tokenId",
          "type": "uint256"
        },
        {
          "internalType": "address",
          "name": "owner",
          "type": "address"
        }
      ],
      "name": "ERC721IncorrectOwner",
      "type": "error"
    },
    {
      "inputs": [
        {
          "internalType": "address",
          "name": "operator",
          "type": "address"
        },
        {
          "internalType": "uint256",
          "name": "tokenId",
          "type": "uint256"
        }
      ],
      "name": "ERC721InsufficientApproval",
      "type": "error"
    },
    {
      "inputs": [
        {
          "internalType": "address",
          "name": "approver",
          "type": "address"
        }
      ],
      "name": "ERC721InvalidApprover",
      "type": "error"
    },
    {
      "inputs": [
        {
          "internalType": "address",
          "name": "operator",
          "type": "address"
        }
      ],
      "name": "ERC721InvalidOperator",
      "type": "error"
    },
    {
      "inputs": [
        {
          "internalType": "address",
          "name": "owner",
          "type": "address"
        }
      ],
      "name": "ERC721InvalidOwner",
      "type": "error"
    },
    {
      "inputs": [
        {
          "internalType": "address",
          "name": "receiver",
          "type": "address"
        }
      ],
      "name": "ERC721InvalidReceiver",
      "type": "error"
    },
    {
      "inputs": [
        {
          "internalType": "address",
          "name": "sender",
          "type": "address"
        }
      ],
      "name": "ERC721InvalidSender",
      "type": "error"
    },
    {
      "inputs": [
        {
          "internalType": "uint256",
          "name": "tokenId",
          "type": "uint256"
        }
      ],
      "name": "ERC721NonexistentToken",
      "type": "error"
    },
    {
      "inputs": [
        {
          "internalType": "address",
          "name": "owner",
          "type": "address"
        },
        {
          "internalType": "uint256",
          "name": "index",
          "type": "uint256"
        }
      ],
      "name": "ERC721OutOfBoundsIndex",
      "type": "error"
    },
    {
      "inputs": [
        {
          "internalType": "address",
          "name": "owner",
          "type": "address"
        }
      ],
      "name": "OwnableInvalidOwner",
      "type": "error"
    },
    {
      "inputs": [
        {
          "internalType": "address",
          "name": "account",
          "type": "address"
        }
      ],
      "name": "OwnableUnauthorizedAccount",
      "type": "error"
    },
    {
      "anonymous": false,
      "inputs": [
        {
          "indexed": true,
          "internalType": "address",
          "name": "owner",
          "type": "address"
        },
        {
          "indexed": true,
          "internalType": "address",
          "name": "approved",
          "type": "address"
        },
        {
          "indexed": true,
          "internalType": "uint256",
          "name": "tokenId",
          "type": "uint256"
        }
      ],
      "name": "Approval",
      "type": "event"
    },
    {
      "anonymous": false,
      "inputs": [
        {
          "indexed": true,
          "internalType": "address",
          "name": "owner",
          "type": "address"
        },
        {
          "indexed": true,
          "internalType": "address",
          "name": "operator",
          "type": "address"
        },
        {
          "indexed": false,
          "internalType": "bool",
          "name": "approved",
          "type": "bool"
        }
      ],
      "name": "ApprovalForAll",
      "type": "event"
    },
    {
      "anonymous": false,
      "inputs": [
        {
          "indexed": true,
          "internalType": "address",
          "name": "sender",
          "type": "address"
        },
        {
          "indexed": false,
          "internalType": "uint256",
          "name": "amount",
          "type": "uint256"
        }
      ],
      "name": "EthReceived",
      "type": "event"
    },
    {
      "anonymous": false,
      "inputs": [
        {
          "indexed": true,
          "internalType": "address",
          "name": "previousOwner",
          "type": "address"
        },
        {
          "indexed": true,
          "internalType": "address",
          "name": "newOwner",
          "type": "address"
        }
      ],
      "name": "OwnershipTransferred",
      "type": "event"
    },
    {
      "anonymous": false,
      "inputs": [
        {
          "indexed": true,
          "internalType": "address",
          "name": "from",
          "type": "address"
        },
        {
          "indexed": true,
          "internalType": "address",
          "name": "to",
          "type": "address"
        },
        {
          "indexed": true,
          "internalType": "uint256",
          "name": "tokenId",
          "type": "uint256"
        }
      ],
      "name": "Transfer",
      "type": "event"
    },
    {
      "inputs": [
        {
          "internalType": "address[]",
          "name": "addresses",
          "type": "address[]"
        }
      ],
      "name": "addWhiteList",
      "outputs": [],
      "stateMutability": "nonpayable",
      "type": "function"
    },
    {
      "inputs": [
        {
          "internalType": "address",
          "name": "to",
          "type": "address"
        },
        {
          "internalType": "uint256",
          "name": "tokenId",
          "type": "uint256"
        }
      ],
      "name": "approve",
      "outputs": [],
      "stateMutability": "nonpayable",
      "type": "function"
    },
    {
      "inputs": [
        {
          "internalType": "address",
          "name": "owner",
          "type": "address"
        }
      ],
      "name": "balanceOf",
      "outputs": [
        {
          "internalType": "uint256",
          "name": "",
          "type": "uint256"
        }
      ],
      "stateMutability": "view",
      "type": "function"
    },
    {
      "inputs": [],
      "name": "baseURI",
      "outputs": [
        {
          "internalType": "string",
          "name": "",
          "type": "string"
        }
      ],
      "stateMutability": "view",
      "type": "function"
    },
    {
      "inputs": [
        {
          "internalType": "uint256",
          "name": "tokenId",
          "type": "uint256"
        }
      ],
      "name": "getApproved",
      "outputs": [
        {
          "internalType": "address",
          "name": "",
          "type": "address"
        }
      ],
      "stateMutability": "view",
      "type": "function"
    },
    {
      "inputs": [
        {
          "internalType": "address",
          "name": "owner",
          "type": "address"
        },
        {
          "internalType": "address",
          "name": "operator",
          "type": "address"
        }
      ],
      "name": "isApprovedForAll",
      "outputs": [
        {
          "internalType": "bool",
          "name": "",
          "type": "bool"
        }
      ],
      "stateMutability": "view",
      "type": "function"
    },
    {
      "inputs": [],
      "name": "max",
      "outputs": [
        {
          "internalType": "uint256",
          "name": "",
          "type": "uint256"
        }
      ],
      "stateMutability": "view",
      "type": "function"
    },
    {
      "inputs": [],
      "name": "mint",
      "outputs": [],
      "stateMutability": "payable",
      "type": "function"
    },
    {
      "inputs": [],
      "name": "name",
      "outputs": [
        {
          "internalType": "string",
          "name": "",
          "type": "string"
        }
      ],
      "stateMutability": "view",
      "type": "function"
    },
    {
      "inputs": [],
      "name": "owner",
      "outputs": [
        {
          "internalType": "address",
          "name": "",
          "type": "address"
        }
      ],
      "stateMutability": "view",
      "type": "function"
    },
    {
      "inputs": [
        {
          "internalType": "uint256",
          "name": "tokenId",
          "type": "uint256"
        }
      ],
      "name": "ownerOf",
      "outputs": [
        {
          "internalType": "address",
          "name": "",
          "type": "address"
        }
      ],
      "stateMutability": "view",
      "type": "function"
    },
    {
      "inputs": [],
      "name": "price",
      "outputs": [
        {
          "internalType": "uint256",
          "name": "",
          "type": "uint256"
        }
      ],
      "stateMutability": "view",
      "type": "function"
    },
    {
      "inputs": [
        {
          "internalType": "address[]",
          "name": "addresses",
          "type": "address[]"
        }
      ],
      "name": "removeWhiteList",
      "outputs": [],
      "stateMutability": "nonpayable",
      "type": "function"
    },
    {
      "inputs": [],
      "name": "renounceOwnership",
      "outputs": [],
      "stateMutability": "nonpayable",
      "type": "function"
    },
    {
      "inputs": [
        {
          "internalType": "address",
          "name": "from",
          "type": "address"
        },
        {
          "internalType": "address",
          "name": "to",
          "type": "address"
        },
        {
          "internalType": "uint256",
          "name": "tokenId",
          "type": "uint256"
        }
      ],
      "name": "safeTransferFrom",
      "outputs": [],
      "stateMutability": "nonpayable",
      "type": "function"
    },
    {
      "inputs": [
        {
          "internalType": "address",
          "name": "from",
          "type": "address"
        },
        {
          "internalType": "address",
          "name": "to",
          "type": "address"
        },
        {
          "internalType": "uint256",
          "name": "tokenId",
          "type": "uint256"
        },
        {
          "internalType": "bytes",
          "name": "data",
          "type": "bytes"
        }
      ],
      "name": "safeTransferFrom",
      "outputs": [],
      "stateMutability": "nonpayable",
      "type": "function"
    },
    {
      "inputs": [
        {
          "internalType": "address",
          "name": "operator",
          "type": "address"
        },
        {
          "internalType": "bool",
          "name": "approved",
          "type": "bool"
        }
      ],
      "name": "setApprovalForAll",
      "outputs": [],
      "stateMutability": "nonpayable",
      "type": "function"
    },
    {
      "inputs": [
        {
          "internalType": "bytes4",
          "name": "interfaceId",
          "type": "bytes4"
        }
      ],
      "name": "supportsInterface",
      "outputs": [
        {
          "internalType": "bool",
          "name": "",
          "type": "bool"
        }
      ],
      "stateMutability": "view",
      "type": "function"
    },
    {
      "inputs": [],
      "name": "symbol",
      "outputs": [
        {
          "internalType": "string",
          "name": "",
          "type": "string"
        }
      ],
      "stateMutability": "view",
      "type": "function"
    },
    {
      "inputs": [
        {
          "internalType": "uint256",
          "name": "index",
          "type": "uint256"
        }
      ],
      "name": "tokenByIndex",
      "outputs": [
        {
          "internalType": "uint256",
          "name": "",
          "type": "uint256"
        }
      ],
      "stateMutability": "view",
      "type": "function"
    },
    {
      "inputs": [
        {
          "internalType": "address",
          "name": "owner",
          "type": "address"
        },
        {
          "internalType": "uint256",
          "name": "index",
          "type": "uint256"
        }
      ],
      "name": "tokenOfOwnerByIndex",
      "outputs": [
        {
          "internalType": "uint256",
          "name": "",
          "type": "uint256"
        }
      ],
      "stateMutability": "view",
      "type": "function"
    },
    {
      "inputs": [
        {
          "internalType": "uint256",
          "name": "tokenId",
          "type": "uint256"
        }
      ],
      "name": "tokenURI",
      "outputs": [
        {
          "internalType": "string",
          "name": "",
          "type": "string"
        }
      ],
      "stateMutability": "view",
      "type": "function"
    },
    {
      "inputs": [],
      "name": "totalSupply",
      "outputs": [
        {
          "internalType": "uint256",
          "name": "",
          "type": "uint256"
        }
      ],
      "stateMutability": "view",
      "type": "function"
    },
    {
      "inputs": [
        {
          "internalType": "address",
          "name": "from",
          "type": "address"
        },
        {
          "internalType": "address",
          "name": "to",
          "type": "address"
        },
        {
          "internalType": "uint256",
          "name": "tokenId",
          "type": "uint256"
        }
      ],
      "name": "transferFrom",
      "outputs": [],
      "stateMutability": "nonpayable",
      "type": "function"
    },
    {
      "inputs": [
        {
          "internalType": "address",
          "name": "newOwner",
          "type": "address"
        }
      ],
      "name": "transferOwnership",
      "outputs": [],
      "stateMutability": "nonpayable",
      "type": "function"
    },
    {
      "inputs": [
        {
          "internalType": "address",
          "name": "",
          "type": "address"
        }
      ],
      "name": "wl",
      "outputs": [
        {
          "internalType": "bool",
          "name": "",
          "type": "bool"
        }
      ],
      "stateMutability": "view",
      "type": "function"
    },
    {
      "stateMutability": "payable",
      "type": "receive"
    }
  ],
  "bytecode": "0x60806040526096600c5566b1a2bc2ec50000600d5560405180608001604052806050815260200162003ab260509139600e90816200003e919062000563565b503480156200004c57600080fd5b506040518060400160405280600d81526020017f436174747920496e75204e4654000000000000000000000000000000000000008152506040518060400160405280600881526020017f43617474794e465400000000000000000000000000000000000000000000000081525033600073ffffffffffffffffffffffffffffffffffffffff168173ffffffffffffffffffffffffffffffffffffffff16036200012f5760006040517f1e4fbdf70000000000000000000000000000000000000000000000000000000081526004016200012691906200068f565b60405180910390fd5b62000140816200022560201b60201c565b50816001908162000152919062000563565b50806002908162000164919062000563565b50505073bdda1dc609f0c4da40104c6c5dae722ef37c7ecf601060006101000a81548173ffffffffffffffffffffffffffffffffffffffff021916908373ffffffffffffffffffffffffffffffffffffffff1602179055506001600f60003373ffffffffffffffffffffffffffffffffffffffff1673ffffffffffffffffffffffffffffffffffffffff16815260200190815260200160002060006101000a81548160ff0219169083151502179055506363fcf900600b81905550620006ac565b60008060009054906101000a900473ffffffffffffffffffffffffffffffffffffffff169050816000806101000a81548173ffffffffffffffffffffffffffffffffffffffff021916908373ffffffffffffffffffffffffffffffffffffffff1602179055508173ffffffffffffffffffffffffffffffffffffffff168173ffffffffffffffffffffffffffffffffffffffff167f8be0079c531659141344cd1fd0a4f28419497f9722a3daafe3b4186f6b6457e060405160405180910390a35050565b600081519050919050565b7f4e487b7100000000000000000000000000000000000000000000000000000000600052604160045260246000fd5b7f4e487b7100000000000000000000000000000000000000000000000000000000600052602260045260246000fd5b600060028204905060018216806200036b57607f821691505b60208210810362000381576200038062000323565b5b50919050565b60008190508160005260206000209050919050565b60006020601f8301049050919050565b600082821b905092915050565b600060088302620003eb7fffffffffffffffffffffffffffffffffffffffffffffffffffffffffffffffff82620003ac565b620003f78683620003ac565b95508019841693508086168417925050509392505050565b6000819050919050565b6000819050919050565b6000620004446200043e62000438846200040f565b62000419565b6200040f565b9050919050565b6000819050919050565b620004608362000423565b620004786200046f826200044b565b848454620003b9565b825550505050565b600090565b6200048f62000480565b6200049c81848462000455565b505050565b5b81811015620004c457620004b860008262000485565b600181019050620004a2565b5050565b601f8211156200051357620004dd8162000387565b620004e8846200039c565b81016020851015620004f8578190505b6200051062000507856200039c565b830182620004a1565b50505b505050565b600082821c905092915050565b6000620005386000198460080262000518565b1980831691505092915050565b600062000553838362000525565b9150826002028217905092915050565b6200056e82620002e9565b67ffffffffffffffff8111156200058a5762000589620002f4565b5b62000596825462000352565b620005a3828285620004c8565b600060209050601f831160018114620005db5760008415620005c6578287015190505b620005d2858262000545565b86555062000642565b601f198416620005eb8662000387565b60005b828110156200061557848901518255600182019150602085019450602081019050620005ee565b8683101562000635578489015162000631601f89168262000525565b8355505b6001600288020188555050505b505050505050565b600073ffffffffffffffffffffffffffffffffffffffff82169050919050565b600062000677826200064a565b9050919050565b62000689816200066a565b82525050565b6000602082019050620006a660008301846200067e565b92915050565b6133f680620006bc6000396000f3fe6080604052600436106101855760003560e01c80636352211e116100d157806395d89b411161008a578063b88d4fde11610064578063b88d4fde14610588578063c87b56dd146105b1578063e985e9c5146105ee578063f2fde38b1461062b57610194565b806395d89b4114610509578063a035b1fe14610534578063a22cb4651461055f57610194565b80636352211e146103f75780636ac5db19146104345780636c0360eb1461045f57806370a082311461048a578063715018a6146104c75780638da5cb5b146104de57610194565b806323b872dd1161013e5780633974579111610118578063397457911461033f57806342842e0e146103685780634f6ccce7146103915780635e1045ec146103ce57610194565b806323b872dd1461029c5780632f745c59146102c55780632fee9e7e1461030257610194565b806301ffc9a71461019957806306fdde03146101d6578063081812fc14610201578063095ea7b31461023e5780631249c58b1461026757806318160ddd1461027157610194565b3661019457610192610654565b005b600080fd5b3480156101a557600080fd5b506101c060048036038101906101bb91906125c6565b610888565b6040516101cd919061260e565b60405180910390f35b3480156101e257600080fd5b506101eb610902565b6040516101f891906126b9565b60405180910390f35b34801561020d57600080fd5b5061022860048036038101906102239190612711565b610994565b604051610235919061277f565b60405180910390f35b34801561024a57600080fd5b50610265600480360381019061026091906127c6565b6109b0565b005b61026f610654565b005b34801561027d57600080fd5b506102866109c6565b6040516102939190612815565b60405180910390f35b3480156102a857600080fd5b506102c360048036038101906102be9190612830565b6109d3565b005b3480156102d157600080fd5b506102ec60048036038101906102e791906127c6565b610ad5565b6040516102f99190612815565b60405180910390f35b34801561030e57600080fd5b5061032960048036038101906103249190612883565b610b7e565b604051610336919061260e565b60405180910390f35b34801561034b57600080fd5b50610366600480360381019061036191906129f8565b610b9e565b005b34801561037457600080fd5b5061038f600480360381019061038a9190612830565b610c3b565b005b34801561039d57600080fd5b506103b860048036038101906103b39190612711565b610c5b565b6040516103c59190612815565b60405180910390f35b3480156103da57600080fd5b506103f560048036038101906103f091906129f8565b610cd1565b005b34801561040357600080fd5b5061041e60048036038101906104199190612711565b610d6e565b60405161042b919061277f565b60405180910390f35b34801561044057600080fd5b50610449610d80565b6040516104569190612815565b60405180910390f35b34801561046b57600080fd5b50610474610d86565b60405161048191906126b9565b60405180910390f35b34801561049657600080fd5b506104b160048036038101906104ac9190612883565b610e14565b6040516104be9190612815565b60405180910390f35b3480156104d357600080fd5b506104dc610ece565b005b3480156104ea57600080fd5b506104f3610ee2565b604051610500919061277f565b60405180910390f35b34801561051557600080fd5b5061051e610f0b565b60405161052b91906126b9565b60405180910390f35b34801561054057600080fd5b50610549610f9d565b6040516105569190612815565b60405180910390f35b34801561056b57600080fd5b5061058660048036038101906105819190612a6d565b610fa3565b005b34801561059457600080fd5b506105af60048036038101906105aa9190612b62565b610fb9565b005b3480156105bd57600080fd5b506105d860048036038101906105d39190612711565b610fd6565b6040516105e591906126b9565b60405180910390f35b3480156105fa57600080fd5b5061061560048036038101906106109190612be5565b61108c565b604051610622919061260e565b60405180910390f35b34801561063757600080fd5b50610652600480360381019061064d9190612883565b611120565b005b42600b541115610699576040517f08c379a000000000000000000000000000000000000000000000000000000000815260040161069090612c71565b60405180910390fd5b600f60003373ffffffffffffffffffffffffffffffffffffffff1673ffffffffffffffffffffffffffffffffffffffff16815260200190815260200160002060009054906101000a900460ff16610725576040517f08c379a000000000000000000000000000000000000000000000000000000000815260040161071c90612cdd565b60405180910390fd5b600d5434101561076a576040517f08c379a000000000000000000000000000000000000000000000000000000000815260040161076190612d49565b60405180910390fd5b600061077533610e14565b146107b5576040517f08c379a00000000000000000000000000000000000000000000000000000000081526004016107ac90612db5565b60405180910390fd5b600c546107c06109c6565b10610800576040517f08c379a00000000000000000000000000000000000000000000000000000000081526004016107f790612e21565b60405180910390fd5b601060009054906101000a900473ffffffffffffffffffffffffffffffffffffffff1673ffffffffffffffffffffffffffffffffffffffff166108fc479081150290604051600060405180830381858888f19350505050158015610868573d6000803e3d6000fd5b506108863360016108776109c6565b6108819190612e70565b6111a6565b565b60007f780e9d63000000000000000000000000000000000000000000000000000000007bffffffffffffffffffffffffffffffffffffffffffffffffffffffff1916827bffffffffffffffffffffffffffffffffffffffffffffffffffffffff191614806108fb57506108fa826111c4565b5b9050919050565b60606001805461091190612ed3565b80601f016020809104026020016040519081016040528092919081815260200182805461093d90612ed3565b801561098a5780601f1061095f5761010080835404028352916020019161098a565b820191906000526020600020905b81548152906001019060200180831161096d57829003601f168201915b5050505050905090565b600061099f826112a6565b506109a98261132e565b9050919050565b6109c282826109bd61136b565b611373565b5050565b6000600980549050905090565b600073ffffffffffffffffffffffffffffffffffffffff168273ffffffffffffffffffffffffffffffffffffffff1603610a455760006040517f64a0ae92000000000000000000000000000000000000000000000000000000008152600401610a3c919061277f565b60405180910390fd5b6000610a598383610a5461136b565b611385565b90508373ffffffffffffffffffffffffffffffffffffffff168173ffffffffffffffffffffffffffffffffffffffff1614610acf578382826040517f64283d7b000000000000000000000000000000000000000000000000000000008152600401610ac693929190612f04565b60405180910390fd5b50505050565b6000610ae083610e14565b8210610b255782826040517fa57d13dc000000000000000000000000000000000000000000000000000000008152600401610b1c929190612f3b565b60405180910390fd5b600760008473ffffffffffffffffffffffffffffffffffffffff1673ffffffffffffffffffffffffffffffffffffffff168152602001908152602001600020600083815260200190815260200160002054905092915050565b600f6020528060005260406000206000915054906101000a900460ff1681565b610ba66114a2565b60005b8151811015610c37576000600f6000848481518110610bcb57610bca612f64565b5b602002602001015173ffffffffffffffffffffffffffffffffffffffff1673ffffffffffffffffffffffffffffffffffffffff16815260200190815260200160002060006101000a81548160ff0219169083151502179055508080610c2f90612f93565b915050610ba9565b5050565b610c5683838360405180602001604052806000815250610fb9565b505050565b6000610c656109c6565b8210610cab576000826040517fa57d13dc000000000000000000000000000000000000000000000000000000008152600401610ca2929190612f3b565b60405180910390fd5b60098281548110610cbf57610cbe612f64565b5b90600052602060002001549050919050565b610cd96114a2565b60005b8151811015610d6a576001600f6000848481518110610cfe57610cfd612f64565b5b602002602001015173ffffffffffffffffffffffffffffffffffffffff1673ffffffffffffffffffffffffffffffffffffffff16815260200190815260200160002060006101000a81548160ff0219169083151502179055508080610d6290612f93565b915050610cdc565b5050565b6000610d79826112a6565b9050919050565b600c5481565b600e8054610d9390612ed3565b80601f0160208091040260200160405190810160405280929190818152602001828054610dbf90612ed3565b8015610e0c5780601f10610de157610100808354040283529160200191610e0c565b820191906000526020600020905b815481529060010190602001808311610def57829003601f168201915b505050505081565b60008073ffffffffffffffffffffffffffffffffffffffff168273ffffffffffffffffffffffffffffffffffffffff1603610e875760006040517f89c62b64000000000000000000000000000000000000000000000000000000008152600401610e7e919061277f565b60405180910390fd5b600460008373ffffffffffffffffffffffffffffffffffffffff1673ffffffffffffffffffffffffffffffffffffffff168152602001908152602001600020549050919050565b610ed66114a2565b610ee06000611529565b565b60008060009054906101000a900473ffffffffffffffffffffffffffffffffffffffff16905090565b606060028054610f1a90612ed3565b80601f0160208091040260200160405190810160405280929190818152602001828054610f4690612ed3565b8015610f935780601f10610f6857610100808354040283529160200191610f93565b820191906000526020600020905b815481529060010190602001808311610f7657829003601f168201915b5050505050905090565b600d5481565b610fb5610fae61136b565b83836115ed565b5050565b610fc48484846109d3565b610fd08484848461175c565b50505050565b60606000610fe383611913565b604051602001610ff3919061303d565b60405160208183030381529060405260405160200161101291906130d5565b604051602081830303815290604052600e60405160200161103492919061318f565b60405160208183030381529060405290508060405160200161105691906131d9565b6040516020818303038152906040526040516020016110759190613225565b604051602081830303815290604052915050919050565b6000600660008473ffffffffffffffffffffffffffffffffffffffff1673ffffffffffffffffffffffffffffffffffffffff16815260200190815260200160002060008373ffffffffffffffffffffffffffffffffffffffff1673ffffffffffffffffffffffffffffffffffffffff16815260200190815260200160002060009054906101000a900460ff16905092915050565b6111286114a2565b600073ffffffffffffffffffffffffffffffffffffffff168173ffffffffffffffffffffffffffffffffffffffff160361119a5760006040517f1e4fbdf7000000000000000000000000000000000000000000000000000000008152600401611191919061277f565b60405180910390fd5b6111a381611529565b50565b6111c08282604051806020016040528060008152506119e1565b5050565b60007f80ac58cd000000000000000000000000000000000000000000000000000000007bffffffffffffffffffffffffffffffffffffffffffffffffffffffff1916827bffffffffffffffffffffffffffffffffffffffffffffffffffffffff1916148061128f57507f5b5e139f000000000000000000000000000000000000000000000000000000007bffffffffffffffffffffffffffffffffffffffffffffffffffffffff1916827bffffffffffffffffffffffffffffffffffffffffffffffffffffffff1916145b8061129f575061129e826119fd565b5b9050919050565b6000806112b283611a67565b9050600073ffffffffffffffffffffffffffffffffffffffff168173ffffffffffffffffffffffffffffffffffffffff160361132557826040517f7e27328900000000000000000000000000000000000000000000000000000000815260040161131c9190612815565b60405180910390fd5b80915050919050565b60006005600083815260200190815260200160002060009054906101000a900473ffffffffffffffffffffffffffffffffffffffff169050919050565b600033905090565b6113808383836001611aa4565b505050565b600080611393858585611c69565b9050600073ffffffffffffffffffffffffffffffffffffffff168173ffffffffffffffffffffffffffffffffffffffff16036113d7576113d284611e83565b611416565b8473ffffffffffffffffffffffffffffffffffffffff168173ffffffffffffffffffffffffffffffffffffffff1614611415576114148185611ecc565b5b5b600073ffffffffffffffffffffffffffffffffffffffff168573ffffffffffffffffffffffffffffffffffffffff1603611458576114538461202d565b611497565b8473ffffffffffffffffffffffffffffffffffffffff168173ffffffffffffffffffffffffffffffffffffffff16146114965761149585856120fe565b5b5b809150509392505050565b6114aa61136b565b73ffffffffffffffffffffffffffffffffffffffff166114c8610ee2565b73ffffffffffffffffffffffffffffffffffffffff1614611527576114eb61136b565b6040517f118cdaa700000000000000000000000000000000000000000000000000000000815260040161151e919061277f565b60405180910390fd5b565b60008060009054906101000a900473ffffffffffffffffffffffffffffffffffffffff169050816000806101000a81548173ffffffffffffffffffffffffffffffffffffffff021916908373ffffffffffffffffffffffffffffffffffffffff1602179055508173ffffffffffffffffffffffffffffffffffffffff168173ffffffffffffffffffffffffffffffffffffffff167f8be0079c531659141344cd1fd0a4f28419497f9722a3daafe3b4186f6b6457e060405160405180910390a35050565b600073ffffffffffffffffffffffffffffffffffffffff168273ffffffffffffffffffffffffffffffffffffffff160361165e57816040517f5b08ba18000000000000000000000000000000000000000000000000000000008152600401611655919061277f565b60405180910390fd5b80600660008573ffffffffffffffffffffffffffffffffffffffff1673ffffffffffffffffffffffffffffffffffffffff16815260200190815260200160002060008473ffffffffffffffffffffffffffffffffffffffff1673ffffffffffffffffffffffffffffffffffffffff16815260200190815260200160002060006101000a81548160ff0219169083151502179055508173ffffffffffffffffffffffffffffffffffffffff168373ffffffffffffffffffffffffffffffffffffffff167f17307eab39ab6107e8899845ad3d59bd9653f200f220920489ca2b5937696c318360405161174f919061260e565b60405180910390a3505050565b60008373ffffffffffffffffffffffffffffffffffffffff163b111561190d578273ffffffffffffffffffffffffffffffffffffffff1663150b7a026117a061136b565b8685856040518563ffffffff1660e01b81526004016117c294939291906132a0565b6020604051808303816000875af19250505080156117fe57506040513d601f19601f820116820180604052508101906117fb9190613301565b60015b611882573d806000811461182e576040519150601f19603f3d011682016040523d82523d6000602084013e611833565b606091505b50600081510361187a57836040517f64a0ae92000000000000000000000000000000000000000000000000000000008152600401611871919061277f565b60405180910390fd5b805181602001fd5b63150b7a0260e01b7bffffffffffffffffffffffffffffffffffffffffffffffffffffffff1916817bffffffffffffffffffffffffffffffffffffffffffffffffffffffff19161461190b57836040517f64a0ae92000000000000000000000000000000000000000000000000000000008152600401611902919061277f565b60405180910390fd5b505b50505050565b60606000600161192284612189565b01905060008167ffffffffffffffff811115611941576119406128b5565b5b6040519080825280601f01601f1916602001820160405280156119735781602001600182028036833780820191505090505b509050600082602001820190505b6001156119d6578080600190039150507f3031323334353637383961626364656600000000000000000000000000000000600a86061a8153600a85816119ca576119c961332e565b5b04945060008503611981575b819350505050919050565b6119eb83836122dc565b6119f8600084848461175c565b505050565b60007f01ffc9a7000000000000000000000000000000000000000000000000000000007bffffffffffffffffffffffffffffffffffffffffffffffffffffffff1916827bffffffffffffffffffffffffffffffffffffffffffffffffffffffff1916149050919050565b60006003600083815260200190815260200160002060009054906101000a900473ffffffffffffffffffffffffffffffffffffffff169050919050565b8080611add5750600073ffffffffffffffffffffffffffffffffffffffff168273ffffffffffffffffffffffffffffffffffffffff1614155b15611c11576000611aed846112a6565b9050600073ffffffffffffffffffffffffffffffffffffffff168373ffffffffffffffffffffffffffffffffffffffff1614158015611b5857508273ffffffffffffffffffffffffffffffffffffffff168173ffffffffffffffffffffffffffffffffffffffff1614155b8015611b6b5750611b69818461108c565b155b15611bad57826040517fa9fbf51f000000000000000000000000000000000000000000000000000000008152600401611ba4919061277f565b60405180910390fd5b8115611c0f57838573ffffffffffffffffffffffffffffffffffffffff168273ffffffffffffffffffffffffffffffffffffffff167f8c5be1e5ebec7d5bd14f71427d1e84f3dd0314c0f7b2291e5b200ac8c7c3b92560405160405180910390a45b505b836005600085815260200190815260200160002060006101000a81548173ffffffffffffffffffffffffffffffffffffffff021916908373ffffffffffffffffffffffffffffffffffffffff16021790555050505050565b600080611c7584611a67565b9050600073ffffffffffffffffffffffffffffffffffffffff168373ffffffffffffffffffffffffffffffffffffffff1614611cb757611cb68184866123d5565b5b600073ffffffffffffffffffffffffffffffffffffffff168173ffffffffffffffffffffffffffffffffffffffff1614611d4857611cf9600085600080611aa4565b6001600460008373ffffffffffffffffffffffffffffffffffffffff1673ffffffffffffffffffffffffffffffffffffffff168152602001908152602001600020600082825403925050819055505b600073ffffffffffffffffffffffffffffffffffffffff168573ffffffffffffffffffffffffffffffffffffffff1614611dcb576001600460008773ffffffffffffffffffffffffffffffffffffffff1673ffffffffffffffffffffffffffffffffffffffff168152602001908152602001600020600082825401925050819055505b846003600086815260200190815260200160002060006101000a81548173ffffffffffffffffffffffffffffffffffffffff021916908373ffffffffffffffffffffffffffffffffffffffff160217905550838573ffffffffffffffffffffffffffffffffffffffff168273ffffffffffffffffffffffffffffffffffffffff167fddf252ad1be2c89b69c2b068fc378daa952ba7f163c4a11628f55a4df523b3ef60405160405180910390a4809150509392505050565b600980549050600a600083815260200190815260200160002081905550600981908060018154018082558091505060019003906000526020600020016000909190919091505550565b6000611ed783610e14565b9050600060086000848152602001908152602001600020549050818114611fbc576000600760008673ffffffffffffffffffffffffffffffffffffffff1673ffffffffffffffffffffffffffffffffffffffff168152602001908152602001600020600084815260200190815260200160002054905080600760008773ffffffffffffffffffffffffffffffffffffffff1673ffffffffffffffffffffffffffffffffffffffff168152602001908152602001600020600084815260200190815260200160002081905550816008600083815260200190815260200160002081905550505b6008600084815260200190815260200160002060009055600760008573ffffffffffffffffffffffffffffffffffffffff1673ffffffffffffffffffffffffffffffffffffffff16815260200190815260200160002060008381526020019081526020016000206000905550505050565b60006001600980549050612041919061335d565b90506000600a600084815260200190815260200160002054905060006009838154811061207157612070612f64565b5b90600052602060002001549050806009838154811061209357612092612f64565b5b906000526020600020018190555081600a600083815260200190815260200160002081905550600a60008581526020019081526020016000206000905560098054806120e2576120e1613391565b5b6001900381819060005260206000200160009055905550505050565b6000600161210b84610e14565b612115919061335d565b905081600760008573ffffffffffffffffffffffffffffffffffffffff1673ffffffffffffffffffffffffffffffffffffffff168152602001908152602001600020600083815260200190815260200160002081905550806008600084815260200190815260200160002081905550505050565b600080600090507a184f03e93ff9f4daa797ed6e38ed64bf6a1f01000000000000000083106121e7577a184f03e93ff9f4daa797ed6e38ed64bf6a1f01000000000000000083816121dd576121dc61332e565b5b0492506040810190505b6d04ee2d6d415b85acef81000000008310612224576d04ee2d6d415b85acef8100000000838161221a5761221961332e565b5b0492506020810190505b662386f26fc10000831061225357662386f26fc1000083816122495761224861332e565b5b0492506010810190505b6305f5e100831061227c576305f5e10083816122725761227161332e565b5b0492506008810190505b61271083106122a15761271083816122975761229661332e565b5b0492506004810190505b606483106122c457606483816122ba576122b961332e565b5b0492506002810190505b600a83106122d3576001810190505b80915050919050565b600073ffffffffffffffffffffffffffffffffffffffff168273ffffffffffffffffffffffffffffffffffffffff160361234e5760006040517f64a0ae92000000000000000000000000000000000000000000000000000000008152600401612345919061277f565b60405180910390fd5b600061235c83836000611385565b9050600073ffffffffffffffffffffffffffffffffffffffff168173ffffffffffffffffffffffffffffffffffffffff16146123d05760006040517f73c6ac6e0000000000000000000000000000000000000000000000000000000081526004016123c7919061277f565b60405180910390fd5b505050565b6123e0838383612499565b61249457600073ffffffffffffffffffffffffffffffffffffffff168373ffffffffffffffffffffffffffffffffffffffff160361245557806040517f7e27328900000000000000000000000000000000000000000000000000000000815260040161244c9190612815565b60405180910390fd5b81816040517f177e802f00000000000000000000000000000000000000000000000000000000815260040161248b929190612f3b565b60405180910390fd5b505050565b60008073ffffffffffffffffffffffffffffffffffffffff168373ffffffffffffffffffffffffffffffffffffffff161415801561255157508273ffffffffffffffffffffffffffffffffffffffff168473ffffffffffffffffffffffffffffffffffffffff1614806125125750612511848461108c565b5b8061255057508273ffffffffffffffffffffffffffffffffffffffff166125388361132e565b73ffffffffffffffffffffffffffffffffffffffff16145b5b90509392505050565b6000604051905090565b600080fd5b600080fd5b60007fffffffff0000000000000000000000000000000000000000000000000000000082169050919050565b6125a38161256e565b81146125ae57600080fd5b50565b6000813590506125c08161259a565b92915050565b6000602082840312156125dc576125db612564565b5b60006125ea848285016125b1565b91505092915050565b60008115159050919050565b612608816125f3565b82525050565b600060208201905061262360008301846125ff565b92915050565b600081519050919050565b600082825260208201905092915050565b60005b83811015612663578082015181840152602081019050612648565b60008484015250505050565b6000601f19601f8301169050919050565b600061268b82612629565b6126958185612634565b93506126a5818560208601612645565b6126ae8161266f565b840191505092915050565b600060208201905081810360008301526126d38184612680565b905092915050565b6000819050919050565b6126ee816126db565b81146126f957600080fd5b50565b60008135905061270b816126e5565b92915050565b60006020828403121561272757612726612564565b5b6000612735848285016126fc565b91505092915050565b600073ffffffffffffffffffffffffffffffffffffffff82169050919050565b60006127698261273e565b9050919050565b6127798161275e565b82525050565b60006020820190506127946000830184612770565b92915050565b6127a38161275e565b81146127ae57600080fd5b50565b6000813590506127c08161279a565b92915050565b600080604083850312156127dd576127dc612564565b5b60006127eb858286016127b1565b92505060206127fc858286016126fc565b9150509250929050565b61280f816126db565b82525050565b600060208201905061282a6000830184612806565b92915050565b60008060006060848603121561284957612848612564565b5b6000612857868287016127b1565b9350506020612868868287016127b1565b9250506040612879868287016126fc565b9150509250925092565b60006020828403121561289957612898612564565b5b60006128a7848285016127b1565b91505092915050565b600080fd5b7f4e487b7100000000000000000000000000000000000000000000000000000000600052604160045260246000fd5b6128ed8261266f565b810181811067ffffffffffffffff8211171561290c5761290b6128b5565b5b80604052505050565b600061291f61255a565b905061292b82826128e4565b919050565b600067ffffffffffffffff82111561294b5761294a6128b5565b5b602082029050602081019050919050565b600080fd5b600061297461296f84612930565b612915565b905080838252602082019050602084028301858111156129975761299661295c565b5b835b818110156129c057806129ac88826127b1565b845260208401935050602081019050612999565b5050509392505050565b600082601f8301126129df576129de6128b0565b5b81356129ef848260208601612961565b91505092915050565b600060208284031215612a0e57612a0d612564565b5b600082013567ffffffffffffffff811115612a2c57612a2b612569565b5b612a38848285016129ca565b91505092915050565b612a4a816125f3565b8114612a5557600080fd5b50565b600081359050612a6781612a41565b92915050565b60008060408385031215612a8457612a83612564565b5b6000612a92858286016127b1565b9250506020612aa385828601612a58565b9150509250929050565b600080fd5b600067ffffffffffffffff821115612acd57612acc6128b5565b5b612ad68261266f565b9050602081019050919050565b82818337600083830152505050565b6000612b05612b0084612ab2565b612915565b905082815260208101848484011115612b2157612b20612aad565b5b612b2c848285612ae3565b509392505050565b600082601f830112612b4957612b486128b0565b5b8135612b59848260208601612af2565b91505092915050565b60008060008060808587031215612b7c57612b7b612564565b5b6000612b8a878288016127b1565b9450506020612b9b878288016127b1565b9350506040612bac878288016126fc565b925050606085013567ffffffffffffffff811115612bcd57612bcc612569565b5b612bd987828801612b34565b91505092959194509250565b60008060408385031215612bfc57612bfb612564565b5b6000612c0a858286016127b1565b9250506020612c1b858286016127b1565b9150509250929050565b7f4d696e74696e67206973206e6f742073746172746564207965742e0000000000600082015250565b6000612c5b601b83612634565b9150612c6682612c25565b602082019050919050565b60006020820190508181036000830152612c8a81612c4e565b9050919050565b7f7768697465206c69737400000000000000000000000000000000000000000000600082015250565b6000612cc7600a83612634565b9150612cd282612c91565b602082019050919050565b60006020820190508181036000830152612cf681612cba565b9050919050565b7f6e6f7420656e6f75676800000000000000000000000000000000000000000000600082015250565b6000612d33600a83612634565b9150612d3e82612cfd565b602082019050919050565b60006020820190508181036000830152612d6281612d26565b9050919050565b7f6f6e6c79206f776e203100000000000000000000000000000000000000000000600082015250565b6000612d9f600a83612634565b9150612daa82612d69565b602082019050919050565b60006020820190508181036000830152612dce81612d92565b9050919050565b7f6d617820737570706c7900000000000000000000000000000000000000000000600082015250565b6000612e0b600a83612634565b9150612e1682612dd5565b602082019050919050565b60006020820190508181036000830152612e3a81612dfe565b9050919050565b7f4e487b7100000000000000000000000000000000000000000000000000000000600052601160045260246000fd5b6000612e7b826126db565b9150612e86836126db565b9250828201905080821115612e9e57612e9d612e41565b5b92915050565b7f4e487b7100000000000000000000000000000000000000000000000000000000600052602260045260246000fd5b60006002820490506001821680612eeb57607f821691505b602082108103612efe57612efd612ea4565b5b50919050565b6000606082019050612f196000830186612770565b612f266020830185612806565b612f336040830184612770565b949350505050565b6000604082019050612f506000830185612770565b612f5d6020830184612806565b9392505050565b7f4e487b7100000000000000000000000000000000000000000000000000000000600052603260045260246000fd5b6000612f9e826126db565b91507fffffffffffffffffffffffffffffffffffffffffffffffffffffffffffffffff8203612fd057612fcf612e41565b5b600182019050919050565b7f7b226e616d65223a2022436174747920496e7520230000000000000000000000815250565b600081905092915050565b600061301782612629565b6130218185613001565b9350613031818560208601612645565b80840191505092915050565b600061304882612fdb565b601582019150613058828461300c565b915081905092915050565b7f222c226465736372697074696f6e223a224120636f6c6c656374696f6e206f6660008201527f20436174747920496e75204e4654222c22696d616765223a2200000000000000602082015250565b60006130bf603983613001565b91506130ca82613063565b603982019050919050565b60006130e1828461300c565b91506130ec826130b2565b915081905092915050565b60008190508160005260206000209050919050565b6000815461311981612ed3565b6131238186613001565b9450600182166000811461313e576001811461315357613186565b60ff1983168652811515820286019350613186565b61315c856130f7565b60005b8381101561317e5781548189015260018201915060208101905061315f565b838801955050505b50505092915050565b600061319b828561300c565b91506131a7828461310c565b91508190509392505050565b7f227d000000000000000000000000000000000000000000000000000000000000815250565b60006131e5828461300c565b91506131f0826131b3565b60028201915081905092915050565b7f646174613a6170706c69636174696f6e2f6a736f6e3b757466382c0000000000815250565b6000613230826131ff565b601b82019150613240828461300c565b915081905092915050565b600081519050919050565b600082825260208201905092915050565b60006132728261324b565b61327c8185613256565b935061328c818560208601612645565b6132958161266f565b840191505092915050565b60006080820190506132b56000830187612770565b6132c26020830186612770565b6132cf6040830185612806565b81810360608301526132e18184613267565b905095945050505050565b6000815190506132fb8161259a565b92915050565b60006020828403121561331757613316612564565b5b6000613325848285016132ec565b91505092915050565b7f4e487b7100000000000000000000000000000000000000000000000000000000600052601260045260246000fd5b6000613368826126db565b9150613373836126db565b925082820390508181111561338b5761338a612e41565b5b92915050565b7f4e487b7100000000000000000000000000000000000000000000000000000000600052603160045260246000fdfea264697066735822122032a1ecb8f346e43dadd4da9d33f69f498893670814fd983fdf0193a34ce6b22c64736f6c6343000814003368747470733a2f2f697066732e696f2f697066732f6261667962656965707a673665376f65733269666467786d6e36616e657065746d6e7167697168343274626a6a6e687634756b78356c6c37336761",
  "linkReferences": {},
  "deployedLinkReferences": {}
}