{
  "_format": "hh-sol-artifact-1",
  "contractName": "IconicReward",
  "sourceName": "contracts/IconicReward.sol",
  "abi": [
    {
      "inputs": [
        {
          "internalType": "address",
          "name": "mintContractAddress",
          "type": "address"
        }
      ],
      "stateMutability": "nonpayable",
      "type": "constructor"
    },
    {
      "inputs": [
        {
          "internalType": "address",
          "name": "owner",
          "type": "address"
        }
      ],
      "name": "OwnableInvalidOwner",
      "type": "error"
    },
    {
      "inputs": [
        {
          "internalType": "address",
          "name": "account",
          "type": "address"
        }
      ],
      "name": "OwnableUnauthorizedAccount",
      "type": "error"
    },
    {
      "anonymous": false,
      "inputs": [
        {
          "indexed": true,
          "internalType": "address",
          "name": "sender",
          "type": "address"
        },
        {
          "indexed": false,
          "internalType": "uint256",
          "name": "amount",
          "type": "uint256"
        }
      ],
      "name": "EthReceived",
      "type": "event"
    },
    {
      "anonymous": false,
      "inputs": [
        {
          "indexed": true,
          "internalType": "address",
          "name": "previousOwner",
          "type": "address"
        },
        {
          "indexed": true,
          "internalType": "address",
          "name": "newOwner",
          "type": "address"
        }
      ],
      "name": "OwnershipTransferred",
      "type": "event"
    },
    {
      "inputs": [
        {
          "internalType": "uint256",
          "name": "",
          "type": "uint256"
        }
      ],
      "name": "accounts",
      "outputs": [
        {
          "internalType": "address",
          "name": "",
          "type": "address"
        }
      ],
      "stateMutability": "view",
      "type": "function"
    },
    {
      "inputs": [
        {
          "internalType": "address",
          "name": "account",
          "type": "address"
        },
        {
          "internalType": "uint256",
          "name": "totalNFTs",
          "type": "uint256"
        }
      ],
      "name": "claimRewards",
      "outputs": [
        {
          "internalType": "uint256",
          "name": "",
          "type": "uint256"
        }
      ],
      "stateMutability": "nonpayable",
      "type": "function"
    },
    {
      "inputs": [],
      "name": "claimer",
      "outputs": [
        {
          "internalType": "address",
          "name": "",
          "type": "address"
        }
      ],
      "stateMutability": "view",
      "type": "function"
    },
    {
      "inputs": [],
      "name": "getEthAmount",
      "outputs": [
        {
          "internalType": "uint256",
          "name": "",
          "type": "uint256"
        }
      ],
      "stateMutability": "view",
      "type": "function"
    },
    {
      "inputs": [
        {
          "internalType": "address",
          "name": "account",
          "type": "address"
        }
      ],
      "name": "getEthBack",
      "outputs": [],
      "stateMutability": "nonpayable",
      "type": "function"
    },
    {
      "inputs": [
        {
          "internalType": "uint256",
          "name": "id",
          "type": "uint256"
        }
      ],
      "name": "getOwnerOfTokenId",
      "outputs": [
        {
          "internalType": "address",
          "name": "",
          "type": "address"
        }
      ],
      "stateMutability": "view",
      "type": "function"
    },
    {
      "inputs": [
        {
          "internalType": "address",
          "name": "",
          "type": "address"
        }
      ],
      "name": "holder_NFTs",
      "outputs": [
        {
          "internalType": "uint256",
          "name": "",
          "type": "uint256"
        }
      ],
      "stateMutability": "view",
      "type": "function"
    },
    {
      "inputs": [
        {
          "internalType": "address",
          "name": "",
          "type": "address"
        }
      ],
      "name": "holder_Rewards",
      "outputs": [
        {
          "internalType": "uint256",
          "name": "",
          "type": "uint256"
        }
      ],
      "stateMutability": "view",
      "type": "function"
    },
    {
      "inputs": [],
      "name": "owner",
      "outputs": [
        {
          "internalType": "address",
          "name": "",
          "type": "address"
        }
      ],
      "stateMutability": "view",
      "type": "function"
    },
    {
      "inputs": [],
      "name": "renounceOwnership",
      "outputs": [],
      "stateMutability": "nonpayable",
      "type": "function"
    },
    {
      "inputs": [
        {
          "internalType": "uint256",
          "name": "day",
          "type": "uint256"
        }
      ],
      "name": "setDurationInDay",
      "outputs": [],
      "stateMutability": "nonpayable",
      "type": "function"
    },
    {
      "inputs": [],
      "name": "startReward",
      "outputs": [],
      "stateMutability": "nonpayable",
      "type": "function"
    },
    {
      "inputs": [
        {
          "internalType": "address",
          "name": "newOwner",
          "type": "address"
        }
      ],
      "name": "transferOwnership",
      "outputs": [],
      "stateMutability": "nonpayable",
      "type": "function"
    },
    {
      "stateMutability": "payable",
      "type": "receive"
    }
  ],
  "bytecode": "0x60806040523480156200001157600080fd5b5060405162001b5838038062001b58833981810160405281019062000037919062000255565b33600073ffffffffffffffffffffffffffffffffffffffff168173ffffffffffffffffffffffffffffffffffffffff1603620000ad5760006040517f1e4fbdf7000000000000000000000000000000000000000000000000000000008152600401620000a4919062000298565b60405180910390fd5b620000be816200012760201b60201c565b506000600481905550606460058190555080600160006101000a81548173ffffffffffffffffffffffffffffffffffffffff021916908373ffffffffffffffffffffffffffffffffffffffff1602179055504260028190555061012c60038190555050620002b5565b60008060009054906101000a900473ffffffffffffffffffffffffffffffffffffffff169050816000806101000a81548173ffffffffffffffffffffffffffffffffffffffff021916908373ffffffffffffffffffffffffffffffffffffffff1602179055508173ffffffffffffffffffffffffffffffffffffffff168173ffffffffffffffffffffffffffffffffffffffff167f8be0079c531659141344cd1fd0a4f28419497f9722a3daafe3b4186f6b6457e060405160405180910390a35050565b600080fd5b600073ffffffffffffffffffffffffffffffffffffffff82169050919050565b60006200021d82620001f0565b9050919050565b6200022f8162000210565b81146200023b57600080fd5b50565b6000815190506200024f8162000224565b92915050565b6000602082840312156200026e576200026d620001eb565b5b60006200027e848285016200023e565b91505092915050565b620002928162000210565b82525050565b6000602082019050620002af600083018462000287565b92915050565b61189380620002c56000396000f3fe6080604052600436106100c65760003560e01c80639a99b4f01161007f578063b07c926d11610059578063b07c926d14610309578063d379be2314610346578063f2a40db814610371578063f2fde38b146103ae57610177565b80639a99b4f0146102665780639baee1d8146102a3578063a0b7646d146102cc57610177565b8063087d01df1461017c57806348688b3c146101a75780636d83dd96146101e4578063715018a61461020d578063746c8ae1146102245780638da5cb5b1461023b57610177565b36610177576000341161010e576040517f08c379a000000000000000000000000000000000000000000000000000000000815260040161010590611214565b60405180910390fd5b3460046000828254610120919061126d565b925050819055503373ffffffffffffffffffffffffffffffffffffffff167f85177f287940f2f05425a4029951af0e047a7f9c4eaa9a6e6917bcd869f866953460405161016d91906112b0565b60405180910390a2005b600080fd5b34801561018857600080fd5b506101916103d7565b60405161019e91906112b0565b60405180910390f35b3480156101b357600080fd5b506101ce60048036038101906101c991906112fc565b6103f9565b6040516101db919061136a565b60405180910390f35b3480156101f057600080fd5b5061020b600480360381019061020691906113b1565b61049e565b005b34801561021957600080fd5b50610222610567565b005b34801561023057600080fd5b5061023961057b565b005b34801561024757600080fd5b5061025061058c565b60405161025d919061136a565b60405180910390f35b34801561027257600080fd5b5061028d600480360381019061028891906113de565b6105b5565b60405161029a91906112b0565b60405180910390f35b3480156102af57600080fd5b506102ca60048036038101906102c591906112fc565b610deb565b005b3480156102d857600080fd5b506102f360048036038101906102ee91906113b1565b610e63565b60405161030091906112b0565b60405180910390f35b34801561031557600080fd5b50610330600480360381019061032b91906113b1565b610e7b565b60405161033d91906112b0565b60405180910390f35b34801561035257600080fd5b5061035b610e93565b604051610368919061136a565b60405180910390f35b34801561037d57600080fd5b50610398600480360381019061039391906112fc565b610eb9565b6040516103a5919061136a565b60405180910390f35b3480156103ba57600080fd5b506103d560048036038101906103d091906113b1565b610eec565b005b60006064605f6004546103ea919061141e565b6103f4919061148f565b905090565b6000600160009054906101000a900473ffffffffffffffffffffffffffffffffffffffff1673ffffffffffffffffffffffffffffffffffffffff16636352211e836040518263ffffffff1660e01b815260040161045691906112b0565b602060405180830381865afa158015610473573d6000803e3d6000fd5b505050506040513d601f19601f8201168201806040525081019061049791906114d5565b9050919050565b6104a6610f72565b6000600454116104eb576040517f08c379a00000000000000000000000000000000000000000000000000000000081526004016104e29061154e565b60405180910390fd5b60003a90506000615208905060008183610505919061141e565b9050600081600454610517919061156e565b90508473ffffffffffffffffffffffffffffffffffffffff166108fc829081150290604051600060405180830381858888f1935050505015801561055f573d6000803e3d6000fd5b505050505050565b61056f610f72565b6105796000610ff9565b565b610583610f72565b42600281905550565b60008060009054906101000a900473ffffffffffffffffffffffffffffffffffffffff16905090565b6000803a905060006152089050600081836105d0919061141e565b90506000816004546105e2919061156e565b905086600960006101000a81548173ffffffffffffffffffffffffffffffffffffffff021916908373ffffffffffffffffffffffffffffffffffffffff16021790555061062d6110bd565b61066c576040517f08c379a0000000000000000000000000000000000000000000000000000000008152600401610663906115ee565b60405180910390fd5b600073ffffffffffffffffffffffffffffffffffffffff168773ffffffffffffffffffffffffffffffffffffffff16036106db576040517f08c379a00000000000000000000000000000000000000000000000000000000081526004016106d29061165a565b60405180910390fd5b600081118061074b5750600060086000600960009054906101000a900473ffffffffffffffffffffffffffffffffffffffff1673ffffffffffffffffffffffffffffffffffffffff1673ffffffffffffffffffffffffffffffffffffffff16815260200190815260200160002054145b61078a576040517f08c379a0000000000000000000000000000000000000000000000000000000008152600401610781906116ec565b60405180910390fd5b600080600190505b878111610a1b57600073ffffffffffffffffffffffffffffffffffffffff16600160009054906101000a900473ffffffffffffffffffffffffffffffffffffffff1673ffffffffffffffffffffffffffffffffffffffff16636352211e836040518263ffffffff1660e01b815260040161080c91906112b0565b602060405180830381865afa158015610829573d6000803e3d6000fd5b505050506040513d601f19601f8201168201806040525081019061084d91906114d5565b73ffffffffffffffffffffffffffffffffffffffff1614610a07576000600160009054906101000a900473ffffffffffffffffffffffffffffffffffffffff1673ffffffffffffffffffffffffffffffffffffffff16636352211e836040518263ffffffff1660e01b81526004016108c591906112b0565b602060405180830381865afa1580156108e2573d6000803e3d6000fd5b505050506040513d601f19601f8201168201806040525081019061090691906114d5565b90506000600660008373ffffffffffffffffffffffffffffffffffffffff1673ffffffffffffffffffffffffffffffffffffffff16815260200190815260200160002054036109b05780600a600084815260200190815260200160002060006101000a81548173ffffffffffffffffffffffffffffffffffffffff021916908373ffffffffffffffffffffffffffffffffffffffff16021790555082806109ac9061170c565b9350505b600660008273ffffffffffffffffffffffffffffffffffffffff1673ffffffffffffffffffffffffffffffffffffffff1681526020019081526020016000206000815480929190610a009061170c565b9190505550505b600181610a14919061126d565b9050610792565b506000600190505b818111610b5657600060066000600a600085815260200190815260200160002060009054906101000a900473ffffffffffffffffffffffffffffffffffffffff1673ffffffffffffffffffffffffffffffffffffffff1673ffffffffffffffffffffffffffffffffffffffff1681526020019081526020016000205460055485610aad919061148f565b610ab7919061141e565b90508060086000600a600086815260200190815260200160002060009054906101000a900473ffffffffffffffffffffffffffffffffffffffff1673ffffffffffffffffffffffffffffffffffffffff1673ffffffffffffffffffffffffffffffffffffffff1681526020019081526020016000206000828254610b3b919061126d565b92505081905550508080610b4e9061170c565b915050610a23565b50600060086000600960009054906101000a900473ffffffffffffffffffffffffffffffffffffffff1673ffffffffffffffffffffffffffffffffffffffff1673ffffffffffffffffffffffffffffffffffffffff1681526020019081526020016000205411610bfb576040517f08c379a0000000000000000000000000000000000000000000000000000000008152600401610bf2906117a0565b60405180910390fd5b600060086000600960009054906101000a900473ffffffffffffffffffffffffffffffffffffffff1673ffffffffffffffffffffffffffffffffffffffff1673ffffffffffffffffffffffffffffffffffffffff168152602001908152602001600020549050600060086000600960009054906101000a900473ffffffffffffffffffffffffffffffffffffffff1673ffffffffffffffffffffffffffffffffffffffff1673ffffffffffffffffffffffffffffffffffffffff168152602001908152602001600020541115610d9c57600960009054906101000a900473ffffffffffffffffffffffffffffffffffffffff1673ffffffffffffffffffffffffffffffffffffffff166108fc829081150290604051600060405180830381858888f19350505050158015610d33573d6000803e3d6000fd5b50600060086000600960009054906101000a900473ffffffffffffffffffffffffffffffffffffffff1673ffffffffffffffffffffffffffffffffffffffff1673ffffffffffffffffffffffffffffffffffffffff168152602001908152602001600020819055505b600960009054906101000a900473ffffffffffffffffffffffffffffffffffffffff1673ffffffffffffffffffffffffffffffffffffffff163160048190555080965050505050505092915050565b610df3610f72565b60008111610e36576040517f08c379a0000000000000000000000000000000000000000000000000000000008152600401610e2d9061180c565b60405180910390fd5b603c80601883610e46919061141e565b610e50919061141e565b610e5a919061141e565b60038190555050565b60066020528060005260406000206000915090505481565b60086020528060005260406000206000915090505481565b600960009054906101000a900473ffffffffffffffffffffffffffffffffffffffff1681565b600a6020528060005260406000206000915054906101000a900473ffffffffffffffffffffffffffffffffffffffff1681565b610ef4610f72565b600073ffffffffffffffffffffffffffffffffffffffff168173ffffffffffffffffffffffffffffffffffffffff1603610f665760006040517f1e4fbdf7000000000000000000000000000000000000000000000000000000008152600401610f5d919061136a565b60405180910390fd5b610f6f81610ff9565b50565b610f7a611189565b73ffffffffffffffffffffffffffffffffffffffff16610f9861058c565b73ffffffffffffffffffffffffffffffffffffffff1614610ff757610fbb611189565b6040517f118cdaa7000000000000000000000000000000000000000000000000000000008152600401610fee919061136a565b60405180910390fd5b565b60008060009054906101000a900473ffffffffffffffffffffffffffffffffffffffff169050816000806101000a81548173ffffffffffffffffffffffffffffffffffffffff021916908373ffffffffffffffffffffffffffffffffffffffff1602179055508173ffffffffffffffffffffffffffffffffffffffff168173ffffffffffffffffffffffffffffffffffffffff167f8be0079c531659141344cd1fd0a4f28419497f9722a3daafe3b4186f6b6457e060405160405180910390a35050565b600080603c8060186002546110d2919061148f565b6110dc919061148f565b6110e6919061148f565b90506000603c806018426110fa919061148f565b611104919061148f565b61110e919061148f565b90506000603c806018600354611124919061148f565b61112e919061148f565b611138919061148f565b9050828211801561115f57506000818484611153919061156e565b61115d919061148f565b115b801561118157506002818484611175919061156e565b61117f919061182c565b105b935050505090565b600033905090565b600082825260208201905092915050565b7f45746820616d6f756e74206d757374206265206f766572207468616e207a657260008201527f6f00000000000000000000000000000000000000000000000000000000000000602082015250565b60006111fe602183611191565b9150611209826111a2565b604082019050919050565b6000602082019050818103600083015261122d816111f1565b9050919050565b6000819050919050565b7f4e487b7100000000000000000000000000000000000000000000000000000000600052601160045260246000fd5b600061127882611234565b915061128383611234565b925082820190508082111561129b5761129a61123e565b5b92915050565b6112aa81611234565b82525050565b60006020820190506112c560008301846112a1565b92915050565b600080fd5b6112d981611234565b81146112e457600080fd5b50565b6000813590506112f6816112d0565b92915050565b600060208284031215611312576113116112cb565b5b6000611320848285016112e7565b91505092915050565b600073ffffffffffffffffffffffffffffffffffffffff82169050919050565b600061135482611329565b9050919050565b61136481611349565b82525050565b600060208201905061137f600083018461135b565b92915050565b61138e81611349565b811461139957600080fd5b50565b6000813590506113ab81611385565b92915050565b6000602082840312156113c7576113c66112cb565b5b60006113d58482850161139c565b91505092915050565b600080604083850312156113f5576113f46112cb565b5b60006114038582860161139c565b9250506020611414858286016112e7565b9150509250929050565b600061142982611234565b915061143483611234565b925082820261144281611234565b915082820484148315176114595761145861123e565b5b5092915050565b7f4e487b7100000000000000000000000000000000000000000000000000000000600052601260045260246000fd5b600061149a82611234565b91506114a583611234565b9250826114b5576114b4611460565b5b828204905092915050565b6000815190506114cf81611385565b92915050565b6000602082840312156114eb576114ea6112cb565b5b60006114f9848285016114c0565b91505092915050565b7f54686572652069736e277420616e792065746800000000000000000000000000600082015250565b6000611538601383611191565b915061154382611502565b602082019050919050565b600060208201905081810360008301526115678161152b565b9050919050565b600061157982611234565b915061158483611234565b925082820390508181111561159c5761159b61123e565b5b92915050565b7f49742773206e6f7420636c61696d2074696d6500000000000000000000000000600082015250565b60006115d8601383611191565b91506115e3826115a2565b602082019050919050565b60006020820190508181036000830152611607816115cb565b9050919050565b7f4164647265737320697320696e7661696c640000000000000000000000000000600082015250565b6000611644601283611191565b915061164f8261160e565b602082019050919050565b6000602082019050818103600083015261167381611637565b9050919050565b7f54686572652069736e277420616e792045544820616d6f756e747320746f206760008201527f69766520726577617264732e0000000000000000000000000000000000000000602082015250565b60006116d6602c83611191565b91506116e18261167a565b604082019050919050565b60006020820190508181036000830152611705816116c9565b9050919050565b600061171782611234565b91507fffffffffffffffffffffffffffffffffffffffffffffffffffffffffffffffff82036117495761174861123e565b5b600182019050919050565b7f4e6f207265776172647320666f722063757272656e7420636c61696d65722e00600082015250565b600061178a601f83611191565b915061179582611754565b602082019050919050565b600060208201905081810360008301526117b98161177d565b9050919050565b7f4475726174696f6e206d757374206265206f766572207a65726f000000000000600082015250565b60006117f6601a83611191565b9150611801826117c0565b602082019050919050565b60006020820190508181036000830152611825816117e9565b9050919050565b600061183782611234565b915061184283611234565b92508261185257611851611460565b5b82820690509291505056fea2646970667358221220421b05c5bf855fa93a59afd517e3f0ad1e89be50e2c299700843644bf25b295f64736f6c63430008140033",
  "linkReferences": {},
  "deployedLinkReferences": {}
}