{
  "_format": "hh-sol-artifact-1",
  "contractName": "LuxuryNFT",
  "sourceName": "contracts/LuxuryNFT.sol",
  "abi": [
    {
      "inputs": [],
      "stateMutability": "nonpayable",
      "type": "constructor"
    },
    {
      "inputs": [],
      "name": "AccessControlBadConfirmation",
      "type": "error"
    },
    {
      "inputs": [
        {
          "internalType": "address",
          "name": "account",
          "type": "address"
        },
        {
          "internalType": "bytes32",
          "name": "neededRole",
          "type": "bytes32"
        }
      ],
      "name": "AccessControlUnauthorizedAccount",
      "type": "error"
    },
    {
      "inputs": [],
      "name": "ECDSAInvalidSignature",
      "type": "error"
    },
    {
      "inputs": [
        {
          "internalType": "uint256",
          "name": "length",
          "type": "uint256"
        }
      ],
      "name": "ECDSAInvalidSignatureLength",
      "type": "error"
    },
    {
      "inputs": [
        {
          "internalType": "bytes32",
          "name": "s",
          "type": "bytes32"
        }
      ],
      "name": "ECDSAInvalidSignatureS",
      "type": "error"
    },
    {
      "inputs": [
        {
          "internalType": "address",
          "name": "sender",
          "type": "address"
        },
        {
          "internalType": "uint256",
          "name": "tokenId",
          "type": "uint256"
        },
        {
          "internalType": "address",
          "name": "owner",
          "type": "address"
        }
      ],
      "name": "ERC721IncorrectOwner",
      "type": "error"
    },
    {
      "inputs": [
        {
          "internalType": "address",
          "name": "operator",
          "type": "address"
        },
        {
          "internalType": "uint256",
          "name": "tokenId",
          "type": "uint256"
        }
      ],
      "name": "ERC721InsufficientApproval",
      "type": "error"
    },
    {
      "inputs": [
        {
          "internalType": "address",
          "name": "approver",
          "type": "address"
        }
      ],
      "name": "ERC721InvalidApprover",
      "type": "error"
    },
    {
      "inputs": [
        {
          "internalType": "address",
          "name": "operator",
          "type": "address"
        }
      ],
      "name": "ERC721InvalidOperator",
      "type": "error"
    },
    {
      "inputs": [
        {
          "internalType": "address",
          "name": "owner",
          "type": "address"
        }
      ],
      "name": "ERC721InvalidOwner",
      "type": "error"
    },
    {
      "inputs": [
        {
          "internalType": "address",
          "name": "receiver",
          "type": "address"
        }
      ],
      "name": "ERC721InvalidReceiver",
      "type": "error"
    },
    {
      "inputs": [
        {
          "internalType": "address",
          "name": "sender",
          "type": "address"
        }
      ],
      "name": "ERC721InvalidSender",
      "type": "error"
    },
    {
      "inputs": [
        {
          "internalType": "uint256",
          "name": "tokenId",
          "type": "uint256"
        }
      ],
      "name": "ERC721NonexistentToken",
      "type": "error"
    },
    {
      "inputs": [],
      "name": "InvalidShortString",
      "type": "error"
    },
    {
      "inputs": [
        {
          "internalType": "string",
          "name": "str",
          "type": "string"
        }
      ],
      "name": "StringTooLong",
      "type": "error"
    },
    {
      "anonymous": false,
      "inputs": [
        {
          "indexed": true,
          "internalType": "address",
          "name": "owner",
          "type": "address"
        },
        {
          "indexed": true,
          "internalType": "address",
          "name": "approved",
          "type": "address"
        },
        {
          "indexed": true,
          "internalType": "uint256",
          "name": "tokenId",
          "type": "uint256"
        }
      ],
      "name": "Approval",
      "type": "event"
    },
    {
      "anonymous": false,
      "inputs": [
        {
          "indexed": true,
          "internalType": "address",
          "name": "owner",
          "type": "address"
        },
        {
          "indexed": true,
          "internalType": "address",
          "name": "operator",
          "type": "address"
        },
        {
          "indexed": false,
          "internalType": "bool",
          "name": "approved",
          "type": "bool"
        }
      ],
      "name": "ApprovalForAll",
      "type": "event"
    },
    {
      "anonymous": false,
      "inputs": [
        {
          "indexed": false,
          "internalType": "uint256",
          "name": "_fromTokenId",
          "type": "uint256"
        },
        {
          "indexed": false,
          "internalType": "uint256",
          "name": "_toTokenId",
          "type": "uint256"
        }
      ],
      "name": "BatchMetadataUpdate",
      "type": "event"
    },
    {
      "anonymous": false,
      "inputs": [],
      "name": "EIP712DomainChanged",
      "type": "event"
    },
    {
      "anonymous": false,
      "inputs": [
        {
          "indexed": false,
          "internalType": "uint256",
          "name": "_tokenId",
          "type": "uint256"
        }
      ],
      "name": "MetadataUpdate",
      "type": "event"
    },
    {
      "anonymous": false,
      "inputs": [
        {
          "indexed": true,
          "internalType": "bytes32",
          "name": "role",
          "type": "bytes32"
        },
        {
          "indexed": true,
          "internalType": "bytes32",
          "name": "previousAdminRole",
          "type": "bytes32"
        },
        {
          "indexed": true,
          "internalType": "bytes32",
          "name": "newAdminRole",
          "type": "bytes32"
        }
      ],
      "name": "RoleAdminChanged",
      "type": "event"
    },
    {
      "anonymous": false,
      "inputs": [
        {
          "indexed": true,
          "internalType": "bytes32",
          "name": "role",
          "type": "bytes32"
        },
        {
          "indexed": true,
          "internalType": "address",
          "name": "account",
          "type": "address"
        },
        {
          "indexed": true,
          "internalType": "address",
          "name": "sender",
          "type": "address"
        }
      ],
      "name": "RoleGranted",
      "type": "event"
    },
    {
      "anonymous": false,
      "inputs": [
        {
          "indexed": true,
          "internalType": "bytes32",
          "name": "role",
          "type": "bytes32"
        },
        {
          "indexed": true,
          "internalType": "address",
          "name": "account",
          "type": "address"
        },
        {
          "indexed": true,
          "internalType": "address",
          "name": "sender",
          "type": "address"
        }
      ],
      "name": "RoleRevoked",
      "type": "event"
    },
    {
      "anonymous": false,
      "inputs": [
        {
          "indexed": true,
          "internalType": "address",
          "name": "from",
          "type": "address"
        },
        {
          "indexed": true,
          "internalType": "address",
          "name": "to",
          "type": "address"
        },
        {
          "indexed": true,
          "internalType": "uint256",
          "name": "tokenId",
          "type": "uint256"
        }
      ],
      "name": "Transfer",
      "type": "event"
    },
    {
      "inputs": [],
      "name": "DEFAULT_ADMIN_ROLE",
      "outputs": [
        {
          "internalType": "bytes32",
          "name": "",
          "type": "bytes32"
        }
      ],
      "stateMutability": "view",
      "type": "function"
    },
    {
      "inputs": [],
      "name": "MINTER_ROLE",
      "outputs": [
        {
          "internalType": "bytes32",
          "name": "",
          "type": "bytes32"
        }
      ],
      "stateMutability": "view",
      "type": "function"
    },
    {
      "inputs": [
        {
          "internalType": "address",
          "name": "to",
          "type": "address"
        },
        {
          "internalType": "uint256",
          "name": "tokenId",
          "type": "uint256"
        }
      ],
      "name": "approve",
      "outputs": [],
      "stateMutability": "nonpayable",
      "type": "function"
    },
    {
      "inputs": [],
      "name": "availableToWithdraw",
      "outputs": [
        {
          "internalType": "uint256",
          "name": "",
          "type": "uint256"
        }
      ],
      "stateMutability": "view",
      "type": "function"
    },
    {
      "inputs": [
        {
          "internalType": "address",
          "name": "owner",
          "type": "address"
        }
      ],
      "name": "balanceOf",
      "outputs": [
        {
          "internalType": "uint256",
          "name": "",
          "type": "uint256"
        }
      ],
      "stateMutability": "view",
      "type": "function"
    },
    {
      "inputs": [],
      "name": "eip712Domain",
      "outputs": [
        {
          "internalType": "bytes1",
          "name": "fields",
          "type": "bytes1"
        },
        {
          "internalType": "string",
          "name": "name",
          "type": "string"
        },
        {
          "internalType": "string",
          "name": "version",
          "type": "string"
        },
        {
          "internalType": "uint256",
          "name": "chainId",
          "type": "uint256"
        },
        {
          "internalType": "address",
          "name": "verifyingContract",
          "type": "address"
        },
        {
          "internalType": "bytes32",
          "name": "salt",
          "type": "bytes32"
        },
        {
          "internalType": "uint256[]",
          "name": "extensions",
          "type": "uint256[]"
        }
      ],
      "stateMutability": "view",
      "type": "function"
    },
    {
      "inputs": [
        {
          "internalType": "uint256",
          "name": "tokenId",
          "type": "uint256"
        }
      ],
      "name": "getApproved",
      "outputs": [
        {
          "internalType": "address",
          "name": "",
          "type": "address"
        }
      ],
      "stateMutability": "view",
      "type": "function"
    },
    {
      "inputs": [],
      "name": "getChainID",
      "outputs": [
        {
          "internalType": "uint256",
          "name": "",
          "type": "uint256"
        }
      ],
      "stateMutability": "view",
      "type": "function"
    },
    {
      "inputs": [],
      "name": "getLastTokenId",
      "outputs": [
        {
          "internalType": "uint256",
          "name": "",
          "type": "uint256"
        }
      ],
      "stateMutability": "nonpayable",
      "type": "function"
    },
    {
      "inputs": [
        {
          "internalType": "bytes32",
          "name": "role",
          "type": "bytes32"
        }
      ],
      "name": "getRoleAdmin",
      "outputs": [
        {
          "internalType": "bytes32",
          "name": "",
          "type": "bytes32"
        }
      ],
      "stateMutability": "view",
      "type": "function"
    },
    {
      "inputs": [
        {
          "internalType": "bytes32",
          "name": "role",
          "type": "bytes32"
        },
        {
          "internalType": "address",
          "name": "account",
          "type": "address"
        }
      ],
      "name": "grantRole",
      "outputs": [],
      "stateMutability": "nonpayable",
      "type": "function"
    },
    {
      "inputs": [
        {
          "internalType": "bytes32",
          "name": "role",
          "type": "bytes32"
        },
        {
          "internalType": "address",
          "name": "account",
          "type": "address"
        }
      ],
      "name": "hasRole",
      "outputs": [
        {
          "internalType": "bool",
          "name": "",
          "type": "bool"
        }
      ],
      "stateMutability": "view",
      "type": "function"
    },
    {
      "inputs": [
        {
          "internalType": "address",
          "name": "owner",
          "type": "address"
        },
        {
          "internalType": "address",
          "name": "operator",
          "type": "address"
        }
      ],
      "name": "isApprovedForAll",
      "outputs": [
        {
          "internalType": "bool",
          "name": "",
          "type": "bool"
        }
      ],
      "stateMutability": "view",
      "type": "function"
    },
    {
      "inputs": [],
      "name": "name",
      "outputs": [
        {
          "internalType": "string",
          "name": "",
          "type": "string"
        }
      ],
      "stateMutability": "view",
      "type": "function"
    },
    {
      "inputs": [
        {
          "internalType": "uint256",
          "name": "tokenId",
          "type": "uint256"
        }
      ],
      "name": "ownerOf",
      "outputs": [
        {
          "internalType": "address",
          "name": "",
          "type": "address"
        }
      ],
      "stateMutability": "view",
      "type": "function"
    },
    {
      "inputs": [
        {
          "internalType": "address",
          "name": "redeemer",
          "type": "address"
        },
        {
          "components": [
            {
              "internalType": "uint256",
              "name": "tokenId",
              "type": "uint256"
            },
            {
              "internalType": "uint256",
              "name": "minPrice",
              "type": "uint256"
            },
            {
              "internalType": "string",
              "name": "uri",
              "type": "string"
            },
            {
              "internalType": "bytes",
              "name": "signature",
              "type": "bytes"
            }
          ],
          "internalType": "struct LuxuryNFT.NFTVoucher[]",
          "name": "voucher",
          "type": "tuple[]"
        },
        {
          "internalType": "uint256",
          "name": "count",
          "type": "uint256"
        }
      ],
      "name": "redeem",
      "outputs": [
        {
          "internalType": "uint256",
          "name": "",
          "type": "uint256"
        }
      ],
      "stateMutability": "payable",
      "type": "function"
    },
    {
      "inputs": [
        {
          "internalType": "bytes32",
          "name": "role",
          "type": "bytes32"
        },
        {
          "internalType": "address",
          "name": "callerConfirmation",
          "type": "address"
        }
      ],
      "name": "renounceRole",
      "outputs": [],
      "stateMutability": "nonpayable",
      "type": "function"
    },
    {
      "inputs": [
        {
          "internalType": "bytes32",
          "name": "role",
          "type": "bytes32"
        },
        {
          "internalType": "address",
          "name": "account",
          "type": "address"
        }
      ],
      "name": "revokeRole",
      "outputs": [],
      "stateMutability": "nonpayable",
      "type": "function"
    },
    {
      "inputs": [
        {
          "internalType": "address",
          "name": "from",
          "type": "address"
        },
        {
          "internalType": "address",
          "name": "to",
          "type": "address"
        },
        {
          "internalType": "uint256",
          "name": "tokenId",
          "type": "uint256"
        }
      ],
      "name": "safeTransferFrom",
      "outputs": [],
      "stateMutability": "nonpayable",
      "type": "function"
    },
    {
      "inputs": [
        {
          "internalType": "address",
          "name": "from",
          "type": "address"
        },
        {
          "internalType": "address",
          "name": "to",
          "type": "address"
        },
        {
          "internalType": "uint256",
          "name": "tokenId",
          "type": "uint256"
        },
        {
          "internalType": "bytes",
          "name": "data",
          "type": "bytes"
        }
      ],
      "name": "safeTransferFrom",
      "outputs": [],
      "stateMutability": "nonpayable",
      "type": "function"
    },
    {
      "inputs": [
        {
          "internalType": "address",
          "name": "operator",
          "type": "address"
        },
        {
          "internalType": "bool",
          "name": "approved",
          "type": "bool"
        }
      ],
      "name": "setApprovalForAll",
      "outputs": [],
      "stateMutability": "nonpayable",
      "type": "function"
    },
    {
      "inputs": [
        {
          "internalType": "bytes4",
          "name": "interfaceId",
          "type": "bytes4"
        }
      ],
      "name": "supportsInterface",
      "outputs": [
        {
          "internalType": "bool",
          "name": "",
          "type": "bool"
        }
      ],
      "stateMutability": "view",
      "type": "function"
    },
    {
      "inputs": [],
      "name": "symbol",
      "outputs": [
        {
          "internalType": "string",
          "name": "",
          "type": "string"
        }
      ],
      "stateMutability": "view",
      "type": "function"
    },
    {
      "inputs": [
        {
          "internalType": "uint256",
          "name": "tokenId",
          "type": "uint256"
        }
      ],
      "name": "tokenURI",
      "outputs": [
        {
          "internalType": "string",
          "name": "",
          "type": "string"
        }
      ],
      "stateMutability": "view",
      "type": "function"
    },
    {
      "inputs": [
        {
          "internalType": "address",
          "name": "from",
          "type": "address"
        },
        {
          "internalType": "address",
          "name": "to",
          "type": "address"
        },
        {
          "internalType": "uint256",
          "name": "tokenId",
          "type": "uint256"
        }
      ],
      "name": "transferFrom",
      "outputs": [],
      "stateMutability": "nonpayable",
      "type": "function"
    },
    {
      "inputs": [],
      "name": "withdraw",
      "outputs": [],
      "stateMutability": "nonpayable",
      "type": "function"
    }
  ],
  "bytecode": "0x6101606040523480156200001257600080fd5b506040518060400160405280600f81526020017f4c617a794e46542d566f756368657200000000000000000000000000000000008152506040518060400160405280600181526020017f31000000000000000000000000000000000000000000000000000000000000008152506040518060400160405280600881526020017f4c617a794e4654310000000000000000000000000000000000000000000000008152506040518060400160405280600481526020017f4c415a31000000000000000000000000000000000000000000000000000000008152508160009081620000fc919062000617565b5080600190816200010e919062000617565b505050620001276007836200020160201b90919060201c565b6101208181525050620001456008826200020160201b90919060201c565b6101408181525050818051906020012060e08181525050808051906020012061010081815250504660a08181525050620001846200025960201b60201c565b608081815250503073ffffffffffffffffffffffffffffffffffffffff1660c08173ffffffffffffffffffffffffffffffffffffffff168152505050506000600a81905550620001fb7f9f2df0fed2c77648de5860a4cc508cd0818c85b8b8a1ab4ceeef8d981c8956a633620002b660201b60201c565b62000921565b600060208351101562000227576200021f836200032660201b60201c565b905062000253565b8262000239836200039360201b60201c565b60000190816200024a919062000617565b5060ff60001b90505b92915050565b60007f8b73c3c69bb8fe3d512ecc4cf759cc79239f7b179b0ffacaa9a75d522b39400f60e0516101005146306040516020016200029b9594939291906200076f565b60405160208183030381529060405280519060200120905090565b60016009600084815260200190815260200160002060000160008373ffffffffffffffffffffffffffffffffffffffff1673ffffffffffffffffffffffffffffffffffffffff16815260200190815260200160002060006101000a81548160ff0219169083151502179055505050565b600080829050601f815111156200037657826040517f305a27a90000000000000000000000000000000000000000000000000000000081526004016200036d91906200085b565b60405180910390fd5b8051816200038490620008b1565b60001c1760001b915050919050565b6000819050919050565b600081519050919050565b7f4e487b7100000000000000000000000000000000000000000000000000000000600052604160045260246000fd5b7f4e487b7100000000000000000000000000000000000000000000000000000000600052602260045260246000fd5b600060028204905060018216806200041f57607f821691505b602082108103620004355762000434620003d7565b5b50919050565b60008190508160005260206000209050919050565b60006020601f8301049050919050565b600082821b905092915050565b6000600883026200049f7fffffffffffffffffffffffffffffffffffffffffffffffffffffffffffffffff8262000460565b620004ab868362000460565b95508019841693508086168417925050509392505050565b6000819050919050565b6000819050919050565b6000620004f8620004f2620004ec84620004c3565b620004cd565b620004c3565b9050919050565b6000819050919050565b6200051483620004d7565b6200052c6200052382620004ff565b8484546200046d565b825550505050565b600090565b6200054362000534565b6200055081848462000509565b505050565b5b8181101562000578576200056c60008262000539565b60018101905062000556565b5050565b601f821115620005c75762000591816200043b565b6200059c8462000450565b81016020851015620005ac578190505b620005c4620005bb8562000450565b83018262000555565b50505b505050565b600082821c905092915050565b6000620005ec60001984600802620005cc565b1980831691505092915050565b6000620006078383620005d9565b9150826002028217905092915050565b62000622826200039d565b67ffffffffffffffff8111156200063e576200063d620003a8565b5b6200064a825462000406565b620006578282856200057c565b600060209050601f8311600181146200068f57600084156200067a578287015190505b620006868582620005f9565b865550620006f6565b601f1984166200069f866200043b565b60005b82811015620006c957848901518255600182019150602085019450602081019050620006a2565b86831015620006e95784890151620006e5601f891682620005d9565b8355505b6001600288020188555050505b505050505050565b6000819050919050565b6200071381620006fe565b82525050565b6200072481620004c3565b82525050565b600073ffffffffffffffffffffffffffffffffffffffff82169050919050565b600062000757826200072a565b9050919050565b62000769816200074a565b82525050565b600060a08201905062000786600083018862000708565b62000795602083018762000708565b620007a4604083018662000708565b620007b3606083018562000719565b620007c260808301846200075e565b9695505050505050565b600082825260208201905092915050565b60005b83811015620007fd578082015181840152602081019050620007e0565b60008484015250505050565b6000601f19601f8301169050919050565b600062000827826200039d565b620008338185620007cc565b935062000845818560208601620007dd565b620008508162000809565b840191505092915050565b600060208201905081810360008301526200087781846200081a565b905092915050565b600081519050919050565b6000819050602082019050919050565b6000620008a88251620006fe565b80915050919050565b6000620008be826200087f565b82620008ca846200088a565b9050620008d7816200089a565b925060208210156200091a57620009157fffffffffffffffffffffffffffffffffffffffffffffffffffffffffffffffff8360200360080262000460565b831692505b5050919050565b60805160a05160c05160e0516101005161012051610140516140556200097c6000396000611a19015260006119de01526000612e2001526000612dff01526000612bf201526000612c4801526000612c7101526140556000f3fe6080604052600436106101815760003560e01c806383c4c00d116100d1578063b88d4fde1161008a578063d539139311610064578063d53913931461059f578063d547741f146105ca578063e322ad2b146105f3578063e985e9c51461061e57610181565b8063b88d4fde14610509578063c87b56dd14610532578063d17907fd1461056f57610181565b806383c4c00d146103f157806384b0196e1461041c57806391d148541461044d57806395d89b411461048a578063a217fddf146104b5578063a22cb465146104e057610181565b80632f2ff15d1161013e57806342842e0e1161011857806342842e0e14610323578063564b81ef1461034c5780636352211e1461037757806370a08231146103b457610181565b80632f2ff15d146102ba57806336568abe146102e35780633ccfd60b1461030c57610181565b806301ffc9a71461018657806306fdde03146101c3578063081812fc146101ee578063095ea7b31461022b57806323b872dd14610254578063248a9ca31461027d575b600080fd5b34801561019257600080fd5b506101ad60048036038101906101a89190612edc565b61065b565b6040516101ba9190612f24565b60405180910390f35b3480156101cf57600080fd5b506101d861067d565b6040516101e59190612fcf565b60405180910390f35b3480156101fa57600080fd5b5061021560048036038101906102109190613027565b61070f565b6040516102229190613095565b60405180910390f35b34801561023757600080fd5b50610252600480360381019061024d91906130dc565b61072b565b005b34801561026057600080fd5b5061027b6004803603810190610276919061311c565b610741565b005b34801561028957600080fd5b506102a4600480360381019061029f91906131a5565b610843565b6040516102b191906131e1565b60405180910390f35b3480156102c657600080fd5b506102e160048036038101906102dc91906131fc565b610863565b005b3480156102ef57600080fd5b5061030a600480360381019061030591906131fc565b610885565b005b34801561031857600080fd5b50610321610900565b005b34801561032f57600080fd5b5061034a6004803603810190610345919061311c565b610a42565b005b34801561035857600080fd5b50610361610a62565b60405161036e919061324b565b60405180910390f35b34801561038357600080fd5b5061039e60048036038101906103999190613027565b610a6f565b6040516103ab9190613095565b60405180910390f35b3480156103c057600080fd5b506103db60048036038101906103d69190613266565b610a81565b6040516103e8919061324b565b60405180910390f35b3480156103fd57600080fd5b50610406610b3b565b604051610413919061324b565b60405180910390f35b34801561042857600080fd5b50610431610b45565b604051610444979695949392919061338c565b60405180910390f35b34801561045957600080fd5b50610474600480360381019061046f91906131fc565b610bef565b6040516104819190612f24565b60405180910390f35b34801561049657600080fd5b5061049f610c5a565b6040516104ac9190612fcf565b60405180910390f35b3480156104c157600080fd5b506104ca610cec565b6040516104d791906131e1565b60405180910390f35b3480156104ec57600080fd5b506105076004803603810190610502919061343c565b610cf3565b005b34801561051557600080fd5b50610530600480360381019061052b91906135b1565b610d09565b005b34801561053e57600080fd5b5061055960048036038101906105549190613027565b610d26565b6040516105669190612fcf565b60405180910390f35b61058960048036038101906105849190613694565b610e39565b604051610596919061324b565b60405180910390f35b3480156105ab57600080fd5b506105b4611266565b6040516105c191906131e1565b60405180910390f35b3480156105d657600080fd5b506105f160048036038101906105ec91906131fc565b61128a565b005b3480156105ff57600080fd5b506106086112ac565b604051610615919061324b565b60405180910390f35b34801561062a57600080fd5b5061064560048036038101906106409190613708565b6112f3565b6040516106529190612f24565b60405180910390f35b600061066682611387565b80610676575061067582611469565b5b9050919050565b60606000805461068c90613777565b80601f01602080910402602001604051908101604052809291908181526020018280546106b890613777565b80156107055780601f106106da57610100808354040283529160200191610705565b820191906000526020600020905b8154815290600101906020018083116106e857829003601f168201915b5050505050905090565b600061071a826114e3565b506107248261156b565b9050919050565b61073d82826107386115a8565b6115b0565b5050565b600073ffffffffffffffffffffffffffffffffffffffff168273ffffffffffffffffffffffffffffffffffffffff16036107b35760006040517f64a0ae920000000000000000000000000000000000000000000000000000000081526004016107aa9190613095565b60405180910390fd5b60006107c783836107c26115a8565b6115c2565b90508373ffffffffffffffffffffffffffffffffffffffff168173ffffffffffffffffffffffffffffffffffffffff161461083d578382826040517f64283d7b000000000000000000000000000000000000000000000000000000008152600401610834939291906137a8565b60405180910390fd5b50505050565b600060096000838152602001908152602001600020600101549050919050565b61086c82610843565b610875816117dc565b61087f83836117f0565b50505050565b61088d6115a8565b73ffffffffffffffffffffffffffffffffffffffff168173ffffffffffffffffffffffffffffffffffffffff16146108f1576040517f6697b23200000000000000000000000000000000000000000000000000000000815260040160405180910390fd5b6108fb82826118e2565b505050565b61092a7f9f2df0fed2c77648de5860a4cc508cd0818c85b8b8a1ab4ceeef8d981c8956a633610bef565b610969576040517f08c379a000000000000000000000000000000000000000000000000000000000815260040161096090613851565b60405180910390fd5b60003390506000600c60008373ffffffffffffffffffffffffffffffffffffffff1673ffffffffffffffffffffffffffffffffffffffff1681526020019081526020016000205490506000600c60008473ffffffffffffffffffffffffffffffffffffffff1673ffffffffffffffffffffffffffffffffffffffff168152602001908152602001600020819055508173ffffffffffffffffffffffffffffffffffffffff166108fc829081150290604051600060405180830381858888f19350505050158015610a3d573d6000803e3d6000fd5b505050565b610a5d83838360405180602001604052806000815250610d09565b505050565b6000804690508091505090565b6000610a7a826114e3565b9050919050565b60008073ffffffffffffffffffffffffffffffffffffffff168273ffffffffffffffffffffffffffffffffffffffff1603610af45760006040517f89c62b64000000000000000000000000000000000000000000000000000000008152600401610aeb9190613095565b60405180910390fd5b600360008373ffffffffffffffffffffffffffffffffffffffff1673ffffffffffffffffffffffffffffffffffffffff168152602001908152602001600020549050919050565b6000600a54905090565b600060608060008060006060610b596119d5565b610b61611a10565b46306000801b600067ffffffffffffffff811115610b8257610b81613486565b5b604051908082528060200260200182016040528015610bb05781602001602082028036833780820191505090505b507f0f00000000000000000000000000000000000000000000000000000000000000959493929190965096509650965096509650965090919293949596565b60006009600084815260200190815260200160002060000160008373ffffffffffffffffffffffffffffffffffffffff1673ffffffffffffffffffffffffffffffffffffffff16815260200190815260200160002060009054906101000a900460ff16905092915050565b606060018054610c6990613777565b80601f0160208091040260200160405190810160405280929190818152602001828054610c9590613777565b8015610ce25780601f10610cb757610100808354040283529160200191610ce2565b820191906000526020600020905b815481529060010190602001808311610cc557829003601f168201915b5050505050905090565b6000801b81565b610d05610cfe6115a8565b8383611a4b565b5050565b610d14848484610741565b610d2084848484611bba565b50505050565b6060610d31826114e3565b506000600660008481526020019081526020016000208054610d5290613777565b80601f0160208091040260200160405190810160405280929190818152602001828054610d7e90613777565b8015610dcb5780601f10610da057610100808354040283529160200191610dcb565b820191906000526020600020905b815481529060010190602001808311610dae57829003601f168201915b505050505090506000610ddc611d71565b90506000815103610df1578192505050610e34565b600082511115610e26578082604051602001610e0e9291906138ad565b60405160208183030381529060405292505050610e34565b610e2f84611d88565b925050505b919050565b60006064600a5410610e80576040517f08c379a0000000000000000000000000000000000000000000000000000000008152600401610e779061391d565b60405180910390fd5b60005b8281101561125d576000610eba868684818110610ea357610ea261393d565b5b9050602002810190610eb5919061397b565b611df1565b905060405180606001604052808273ffffffffffffffffffffffffffffffffffffffff1681526020018873ffffffffffffffffffffffffffffffffffffffff168152602001878785818110610f1257610f1161393d565b5b9050602002810190610f24919061397b565b8060400190610f3391906139a3565b8080601f016020809104026020016040519081016040528093929190818152602001838380828437600081840152601f19601f82011690508083019250505050505050815250600b6000888886818110610f9057610f8f61393d565b5b9050602002810190610fa2919061397b565b60000135815260200190815260200160002060008201518160000160006101000a81548173ffffffffffffffffffffffffffffffffffffffff021916908373ffffffffffffffffffffffffffffffffffffffff16021790555060208201518160010160006101000a81548173ffffffffffffffffffffffffffffffffffffffff021916908373ffffffffffffffffffffffffffffffffffffffff16021790555060408201518160020190816110579190613bb2565b5090505061108d818787858181106110725761107161393d565b5b9050602002810190611084919061397b565b60000135611e63565b6111358686848181106110a3576110a261393d565b5b90506020028101906110b5919061397b565b600001358787858181106110cc576110cb61393d565b5b90506020028101906110de919061397b565b80604001906110ed91906139a3565b8080601f016020809104026020016040519081016040528093929190818152602001838380828437600081840152601f19601f82011690508083019250505050505050611f5c565b611168818888888681811061114d5761114c61393d565b5b905060200281019061115f919061397b565b60000135611fb8565b85858381811061117b5761117a61393d565b5b905060200281019061118d919061397b565b60200135600c60008373ffffffffffffffffffffffffffffffffffffffff1673ffffffffffffffffffffffffffffffffffffffff16815260200190815260200160002060008282546111df9190613cb3565b925050819055508585838181106111f9576111f861393d565b5b905060200281019061120b919061397b565b60000135600a5410156112485785858381811061122b5761122a61393d565b5b905060200281019061123d919061397b565b60000135600a819055505b506001816112569190613cb3565b9050610e83565b50949350505050565b7f9f2df0fed2c77648de5860a4cc508cd0818c85b8b8a1ab4ceeef8d981c8956a681565b61129382610843565b61129c816117dc565b6112a683836118e2565b50505050565b6000600c60003373ffffffffffffffffffffffffffffffffffffffff1673ffffffffffffffffffffffffffffffffffffffff16815260200190815260200160002054905090565b6000600560008473ffffffffffffffffffffffffffffffffffffffff1673ffffffffffffffffffffffffffffffffffffffff16815260200190815260200160002060008373ffffffffffffffffffffffffffffffffffffffff1673ffffffffffffffffffffffffffffffffffffffff16815260200190815260200160002060009054906101000a900460ff16905092915050565b60007f80ac58cd000000000000000000000000000000000000000000000000000000007bffffffffffffffffffffffffffffffffffffffffffffffffffffffff1916827bffffffffffffffffffffffffffffffffffffffffffffffffffffffff1916148061145257507f5b5e139f000000000000000000000000000000000000000000000000000000007bffffffffffffffffffffffffffffffffffffffffffffffffffffffff1916827bffffffffffffffffffffffffffffffffffffffffffffffffffffffff1916145b80611462575061146182612125565b5b9050919050565b60007f7965db0b000000000000000000000000000000000000000000000000000000007bffffffffffffffffffffffffffffffffffffffffffffffffffffffff1916827bffffffffffffffffffffffffffffffffffffffffffffffffffffffff191614806114dc57506114db8261218f565b5b9050919050565b6000806114ef836121f0565b9050600073ffffffffffffffffffffffffffffffffffffffff168173ffffffffffffffffffffffffffffffffffffffff160361156257826040517f7e273289000000000000000000000000000000000000000000000000000000008152600401611559919061324b565b60405180910390fd5b80915050919050565b60006004600083815260200190815260200160002060009054906101000a900473ffffffffffffffffffffffffffffffffffffffff169050919050565b600033905090565b6115bd838383600161222d565b505050565b6000806115ce846121f0565b9050600073ffffffffffffffffffffffffffffffffffffffff168373ffffffffffffffffffffffffffffffffffffffff16146116105761160f8184866123f2565b5b600073ffffffffffffffffffffffffffffffffffffffff168173ffffffffffffffffffffffffffffffffffffffff16146116a15761165260008560008061222d565b6001600360008373ffffffffffffffffffffffffffffffffffffffff1673ffffffffffffffffffffffffffffffffffffffff168152602001908152602001600020600082825403925050819055505b600073ffffffffffffffffffffffffffffffffffffffff168573ffffffffffffffffffffffffffffffffffffffff1614611724576001600360008773ffffffffffffffffffffffffffffffffffffffff1673ffffffffffffffffffffffffffffffffffffffff168152602001908152602001600020600082825401925050819055505b846002600086815260200190815260200160002060006101000a81548173ffffffffffffffffffffffffffffffffffffffff021916908373ffffffffffffffffffffffffffffffffffffffff160217905550838573ffffffffffffffffffffffffffffffffffffffff168273ffffffffffffffffffffffffffffffffffffffff167fddf252ad1be2c89b69c2b068fc378daa952ba7f163c4a11628f55a4df523b3ef60405160405180910390a4809150509392505050565b6117ed816117e86115a8565b6124b6565b50565b60006117fc8383610bef565b6118d75760016009600085815260200190815260200160002060000160008473ffffffffffffffffffffffffffffffffffffffff1673ffffffffffffffffffffffffffffffffffffffff16815260200190815260200160002060006101000a81548160ff0219169083151502179055506118746115a8565b73ffffffffffffffffffffffffffffffffffffffff168273ffffffffffffffffffffffffffffffffffffffff16847f2f8788117e7eff1d82e926ec794901d17c78024a50270940304540a733656f0d60405160405180910390a4600190506118dc565b600090505b92915050565b60006118ee8383610bef565b156119ca5760006009600085815260200190815260200160002060000160008473ffffffffffffffffffffffffffffffffffffffff1673ffffffffffffffffffffffffffffffffffffffff16815260200190815260200160002060006101000a81548160ff0219169083151502179055506119676115a8565b73ffffffffffffffffffffffffffffffffffffffff168273ffffffffffffffffffffffffffffffffffffffff16847ff6391f5c32d9c69d2a47ea670b442974b53935d1edc7fd64eb21e047a839171b60405160405180910390a4600190506119cf565b600090505b92915050565b6060611a0b60077f000000000000000000000000000000000000000000000000000000000000000061250790919063ffffffff16565b905090565b6060611a4660087f000000000000000000000000000000000000000000000000000000000000000061250790919063ffffffff16565b905090565b600073ffffffffffffffffffffffffffffffffffffffff168273ffffffffffffffffffffffffffffffffffffffff1603611abc57816040517f5b08ba18000000000000000000000000000000000000000000000000000000008152600401611ab39190613095565b60405180910390fd5b80600560008573ffffffffffffffffffffffffffffffffffffffff1673ffffffffffffffffffffffffffffffffffffffff16815260200190815260200160002060008473ffffffffffffffffffffffffffffffffffffffff1673ffffffffffffffffffffffffffffffffffffffff16815260200190815260200160002060006101000a81548160ff0219169083151502179055508173ffffffffffffffffffffffffffffffffffffffff168373ffffffffffffffffffffffffffffffffffffffff167f17307eab39ab6107e8899845ad3d59bd9653f200f220920489ca2b5937696c3183604051611bad9190612f24565b60405180910390a3505050565b60008373ffffffffffffffffffffffffffffffffffffffff163b1115611d6b578273ffffffffffffffffffffffffffffffffffffffff1663150b7a02611bfe6115a8565b8685856040518563ffffffff1660e01b8152600401611c209493929190613d3c565b6020604051808303816000875af1925050508015611c5c57506040513d601f19601f82011682018060405250810190611c599190613d9d565b60015b611ce0573d8060008114611c8c576040519150601f19603f3d011682016040523d82523d6000602084013e611c91565b606091505b506000815103611cd857836040517f64a0ae92000000000000000000000000000000000000000000000000000000008152600401611ccf9190613095565b60405180910390fd5b805181602001fd5b63150b7a0260e01b7bffffffffffffffffffffffffffffffffffffffffffffffffffffffff1916817bffffffffffffffffffffffffffffffffffffffffffffffffffffffff191614611d6957836040517f64a0ae92000000000000000000000000000000000000000000000000000000008152600401611d609190613095565b60405180910390fd5b505b50505050565b606060405180602001604052806000815250905090565b6060611d93826114e3565b506000611d9e611d71565b90506000815111611dbe5760405180602001604052806000815250611de9565b80611dc8846125b7565b604051602001611dd99291906138ad565b6040516020818303038152906040525b915050919050565b600080611dfd83612685565b9050611e5b81848060600190611e139190613dca565b8080601f016020809104026020016040519081016040528093929190818152602001838380828437600081840152601f19601f82011690508083019250505050505050612710565b915050919050565b600073ffffffffffffffffffffffffffffffffffffffff168273ffffffffffffffffffffffffffffffffffffffff1603611ed55760006040517f64a0ae92000000000000000000000000000000000000000000000000000000008152600401611ecc9190613095565b60405180910390fd5b6000611ee3838360006115c2565b9050600073ffffffffffffffffffffffffffffffffffffffff168173ffffffffffffffffffffffffffffffffffffffff1614611f575760006040517f73c6ac6e000000000000000000000000000000000000000000000000000000008152600401611f4e9190613095565b60405180910390fd5b505050565b80600660008481526020019081526020016000209081611f7c9190613bb2565b507ff8e1a15aba9398e019f0b49df1a4fde98ee17ae345cb5f6b5e2c27f5033e8ce782604051611fac919061324b565b60405180910390a15050565b600073ffffffffffffffffffffffffffffffffffffffff168273ffffffffffffffffffffffffffffffffffffffff160361202a5760006040517f64a0ae920000000000000000000000000000000000000000000000000000000081526004016120219190613095565b60405180910390fd5b6000612038838360006115c2565b9050600073ffffffffffffffffffffffffffffffffffffffff168173ffffffffffffffffffffffffffffffffffffffff16036120ab57816040517f7e2732890000000000000000000000000000000000000000000000000000000081526004016120a2919061324b565b60405180910390fd5b8373ffffffffffffffffffffffffffffffffffffffff168173ffffffffffffffffffffffffffffffffffffffff161461211f578382826040517f64283d7b000000000000000000000000000000000000000000000000000000008152600401612116939291906137a8565b60405180910390fd5b50505050565b60007f01ffc9a7000000000000000000000000000000000000000000000000000000007bffffffffffffffffffffffffffffffffffffffffffffffffffffffff1916827bffffffffffffffffffffffffffffffffffffffffffffffffffffffff1916149050919050565b6000634906490660e01b7bffffffffffffffffffffffffffffffffffffffffffffffffffffffff1916827bffffffffffffffffffffffffffffffffffffffffffffffffffffffff191614806121e957506121e882611387565b5b9050919050565b60006002600083815260200190815260200160002060009054906101000a900473ffffffffffffffffffffffffffffffffffffffff169050919050565b80806122665750600073ffffffffffffffffffffffffffffffffffffffff168273ffffffffffffffffffffffffffffffffffffffff1614155b1561239a576000612276846114e3565b9050600073ffffffffffffffffffffffffffffffffffffffff168373ffffffffffffffffffffffffffffffffffffffff16141580156122e157508273ffffffffffffffffffffffffffffffffffffffff168173ffffffffffffffffffffffffffffffffffffffff1614155b80156122f457506122f281846112f3565b155b1561233657826040517fa9fbf51f00000000000000000000000000000000000000000000000000000000815260040161232d9190613095565b60405180910390fd5b811561239857838573ffffffffffffffffffffffffffffffffffffffff168273ffffffffffffffffffffffffffffffffffffffff167f8c5be1e5ebec7d5bd14f71427d1e84f3dd0314c0f7b2291e5b200ac8c7c3b92560405160405180910390a45b505b836004600085815260200190815260200160002060006101000a81548173ffffffffffffffffffffffffffffffffffffffff021916908373ffffffffffffffffffffffffffffffffffffffff16021790555050505050565b6123fd83838361273c565b6124b157600073ffffffffffffffffffffffffffffffffffffffff168373ffffffffffffffffffffffffffffffffffffffff160361247257806040517f7e273289000000000000000000000000000000000000000000000000000000008152600401612469919061324b565b60405180910390fd5b81816040517f177e802f0000000000000000000000000000000000000000000000000000000081526004016124a8929190613e2d565b60405180910390fd5b505050565b6124c08282610bef565b6125035780826040517fe2517d3f0000000000000000000000000000000000000000000000000000000081526004016124fa929190613e56565b60405180910390fd5b5050565b606060ff60001b83146125245761251d836127fd565b90506125b1565b81805461253090613777565b80601f016020809104026020016040519081016040528092919081815260200182805461255c90613777565b80156125a95780601f1061257e576101008083540402835291602001916125a9565b820191906000526020600020905b81548152906001019060200180831161258c57829003601f168201915b505050505090505b92915050565b6060600060016125c684612871565b01905060008167ffffffffffffffff8111156125e5576125e4613486565b5b6040519080825280601f01601f1916602001820160405280156126175781602001600182028036833780820191505090505b509050600082602001820190505b60011561267a578080600190039150507f3031323334353637383961626364656600000000000000000000000000000000600a86061a8153600a858161266e5761266d613e7f565b5b04945060008503612625575b819350505050919050565b60006127097f6316f9ddd4d59a364f3b95c26bab9d392c3380ace0fff15e91ed76f0d8bcd15a836000013584602001358580604001906126c591906139a3565b6040516126d3929190613ede565b60405180910390206040516020016126ee9493929190613ef7565b604051602081830303815290604052805190602001206129c4565b9050919050565b60008060008061272086866129de565b9250925092506127308282612a3a565b82935050505092915050565b60008073ffffffffffffffffffffffffffffffffffffffff168373ffffffffffffffffffffffffffffffffffffffff16141580156127f457508273ffffffffffffffffffffffffffffffffffffffff168473ffffffffffffffffffffffffffffffffffffffff1614806127b557506127b484846112f3565b5b806127f357508273ffffffffffffffffffffffffffffffffffffffff166127db8361156b565b73ffffffffffffffffffffffffffffffffffffffff16145b5b90509392505050565b6060600061280a83612b9e565b90506000602067ffffffffffffffff81111561282957612828613486565b5b6040519080825280601f01601f19166020018201604052801561285b5781602001600182028036833780820191505090505b5090508181528360208201528092505050919050565b600080600090507a184f03e93ff9f4daa797ed6e38ed64bf6a1f01000000000000000083106128cf577a184f03e93ff9f4daa797ed6e38ed64bf6a1f01000000000000000083816128c5576128c4613e7f565b5b0492506040810190505b6d04ee2d6d415b85acef8100000000831061290c576d04ee2d6d415b85acef8100000000838161290257612901613e7f565b5b0492506020810190505b662386f26fc10000831061293b57662386f26fc10000838161293157612930613e7f565b5b0492506010810190505b6305f5e1008310612964576305f5e100838161295a57612959613e7f565b5b0492506008810190505b612710831061298957612710838161297f5761297e613e7f565b5b0492506004810190505b606483106129ac57606483816129a2576129a1613e7f565b5b0492506002810190505b600a83106129bb576001810190505b80915050919050565b60006129d76129d1612bee565b83612ca5565b9050919050565b60008060006041845103612a235760008060006020870151925060408701519150606087015160001a9050612a1588828585612ce6565b955095509550505050612a33565b60006002855160001b9250925092505b9250925092565b60006003811115612a4e57612a4d613f3c565b5b826003811115612a6157612a60613f3c565b5b0315612b9a5760016003811115612a7b57612a7a613f3c565b5b826003811115612a8e57612a8d613f3c565b5b03612ac5576040517ff645eedf00000000000000000000000000000000000000000000000000000000815260040160405180910390fd5b60026003811115612ad957612ad8613f3c565b5b826003811115612aec57612aeb613f3c565b5b03612b31578060001c6040517ffce698f7000000000000000000000000000000000000000000000000000000008152600401612b28919061324b565b60405180910390fd5b600380811115612b4457612b43613f3c565b5b826003811115612b5757612b56613f3c565b5b03612b9957806040517fd78bce0c000000000000000000000000000000000000000000000000000000008152600401612b9091906131e1565b60405180910390fd5b5b5050565b60008060ff8360001c169050601f811115612be5576040517fb3512b0c00000000000000000000000000000000000000000000000000000000815260040160405180910390fd5b80915050919050565b60007f000000000000000000000000000000000000000000000000000000000000000073ffffffffffffffffffffffffffffffffffffffff163073ffffffffffffffffffffffffffffffffffffffff16148015612c6a57507f000000000000000000000000000000000000000000000000000000000000000046145b15612c97577f00000000000000000000000000000000000000000000000000000000000000009050612ca2565b612c9f612dda565b90505b90565b60006040517f190100000000000000000000000000000000000000000000000000000000000081528360028201528260228201526042812091505092915050565b60008060007f7fffffffffffffffffffffffffffffff5d576e7357a4501ddfe92f46681b20a08460001c1115612d26576000600385925092509250612dd0565b600060018888888860405160008152602001604052604051612d4b9493929190613f87565b6020604051602081039080840390855afa158015612d6d573d6000803e3d6000fd5b505050602060405103519050600073ffffffffffffffffffffffffffffffffffffffff168173ffffffffffffffffffffffffffffffffffffffff1603612dc157600060016000801b93509350935050612dd0565b8060008060001b935093509350505b9450945094915050565b60007f8b73c3c69bb8fe3d512ecc4cf759cc79239f7b179b0ffacaa9a75d522b39400f7f00000000000000000000000000000000000000000000000000000000000000007f00000000000000000000000000000000000000000000000000000000000000004630604051602001612e55959493929190613fcc565b60405160208183030381529060405280519060200120905090565b6000604051905090565b600080fd5b600080fd5b60007fffffffff0000000000000000000000000000000000000000000000000000000082169050919050565b612eb981612e84565b8114612ec457600080fd5b50565b600081359050612ed681612eb0565b92915050565b600060208284031215612ef257612ef1612e7a565b5b6000612f0084828501612ec7565b91505092915050565b60008115159050919050565b612f1e81612f09565b82525050565b6000602082019050612f396000830184612f15565b92915050565b600081519050919050565b600082825260208201905092915050565b60005b83811015612f79578082015181840152602081019050612f5e565b60008484015250505050565b6000601f19601f8301169050919050565b6000612fa182612f3f565b612fab8185612f4a565b9350612fbb818560208601612f5b565b612fc481612f85565b840191505092915050565b60006020820190508181036000830152612fe98184612f96565b905092915050565b6000819050919050565b61300481612ff1565b811461300f57600080fd5b50565b60008135905061302181612ffb565b92915050565b60006020828403121561303d5761303c612e7a565b5b600061304b84828501613012565b91505092915050565b600073ffffffffffffffffffffffffffffffffffffffff82169050919050565b600061307f82613054565b9050919050565b61308f81613074565b82525050565b60006020820190506130aa6000830184613086565b92915050565b6130b981613074565b81146130c457600080fd5b50565b6000813590506130d6816130b0565b92915050565b600080604083850312156130f3576130f2612e7a565b5b6000613101858286016130c7565b925050602061311285828601613012565b9150509250929050565b60008060006060848603121561313557613134612e7a565b5b6000613143868287016130c7565b9350506020613154868287016130c7565b925050604061316586828701613012565b9150509250925092565b6000819050919050565b6131828161316f565b811461318d57600080fd5b50565b60008135905061319f81613179565b92915050565b6000602082840312156131bb576131ba612e7a565b5b60006131c984828501613190565b91505092915050565b6131db8161316f565b82525050565b60006020820190506131f660008301846131d2565b92915050565b6000806040838503121561321357613212612e7a565b5b600061322185828601613190565b9250506020613232858286016130c7565b9150509250929050565b61324581612ff1565b82525050565b6000602082019050613260600083018461323c565b92915050565b60006020828403121561327c5761327b612e7a565b5b600061328a848285016130c7565b91505092915050565b60007fff0000000000000000000000000000000000000000000000000000000000000082169050919050565b6132c881613293565b82525050565b600081519050919050565b600082825260208201905092915050565b6000819050602082019050919050565b61330381612ff1565b82525050565b600061331583836132fa565b60208301905092915050565b6000602082019050919050565b6000613339826132ce565b61334381856132d9565b935061334e836132ea565b8060005b8381101561337f5781516133668882613309565b975061337183613321565b925050600181019050613352565b5085935050505092915050565b600060e0820190506133a1600083018a6132bf565b81810360208301526133b38189612f96565b905081810360408301526133c78188612f96565b90506133d6606083018761323c565b6133e36080830186613086565b6133f060a08301856131d2565b81810360c0830152613402818461332e565b905098975050505050505050565b61341981612f09565b811461342457600080fd5b50565b60008135905061343681613410565b92915050565b6000806040838503121561345357613452612e7a565b5b6000613461858286016130c7565b925050602061347285828601613427565b9150509250929050565b600080fd5b600080fd5b7f4e487b7100000000000000000000000000000000000000000000000000000000600052604160045260246000fd5b6134be82612f85565b810181811067ffffffffffffffff821117156134dd576134dc613486565b5b80604052505050565b60006134f0612e70565b90506134fc82826134b5565b919050565b600067ffffffffffffffff82111561351c5761351b613486565b5b61352582612f85565b9050602081019050919050565b82818337600083830152505050565b600061355461354f84613501565b6134e6565b9050828152602081018484840111156135705761356f613481565b5b61357b848285613532565b509392505050565b600082601f8301126135985761359761347c565b5b81356135a8848260208601613541565b91505092915050565b600080600080608085870312156135cb576135ca612e7a565b5b60006135d9878288016130c7565b94505060206135ea878288016130c7565b93505060406135fb87828801613012565b925050606085013567ffffffffffffffff81111561361c5761361b612e7f565b5b61362887828801613583565b91505092959194509250565b600080fd5b600080fd5b60008083601f8401126136545761365361347c565b5b8235905067ffffffffffffffff81111561367157613670613634565b5b60208301915083602082028301111561368d5761368c613639565b5b9250929050565b600080600080606085870312156136ae576136ad612e7a565b5b60006136bc878288016130c7565b945050602085013567ffffffffffffffff8111156136dd576136dc612e7f565b5b6136e98782880161363e565b935093505060406136fc87828801613012565b91505092959194509250565b6000806040838503121561371f5761371e612e7a565b5b600061372d858286016130c7565b925050602061373e858286016130c7565b9150509250929050565b7f4e487b7100000000000000000000000000000000000000000000000000000000600052602260045260246000fd5b6000600282049050600182168061378f57607f821691505b6020821081036137a2576137a1613748565b5b50919050565b60006060820190506137bd6000830186613086565b6137ca602083018561323c565b6137d76040830184613086565b949350505050565b7f4f6e6c7920617574686f72697a6564206d696e746572732063616e207769746860008201527f6472617700000000000000000000000000000000000000000000000000000000602082015250565b600061383b602483612f4a565b9150613846826137df565b604082019050919050565b6000602082019050818103600083015261386a8161382e565b9050919050565b600081905092915050565b600061388782612f3f565b6138918185613871565b93506138a1818560208601612f5b565b80840191505092915050565b60006138b9828561387c565b91506138c5828461387c565b91508190509392505050565b7f4e667420746f6b656e20636f756e7473206c696d697465640000000000000000600082015250565b6000613907601883612f4a565b9150613912826138d1565b602082019050919050565b60006020820190508181036000830152613936816138fa565b9050919050565b7f4e487b7100000000000000000000000000000000000000000000000000000000600052603260045260246000fd5b600080fd5b600080fd5b600080fd5b6000823560016080038336030381126139975761399661396c565b5b80830191505092915050565b600080833560016020038436030381126139c0576139bf61396c565b5b80840192508235915067ffffffffffffffff8211156139e2576139e1613971565b5b6020830192506001820236038313156139fe576139fd613976565b5b509250929050565b60008190508160005260206000209050919050565b60006020601f8301049050919050565b600082821b905092915050565b600060088302613a687fffffffffffffffffffffffffffffffffffffffffffffffffffffffffffffffff82613a2b565b613a728683613a2b565b95508019841693508086168417925050509392505050565b6000819050919050565b6000613aaf613aaa613aa584612ff1565b613a8a565b612ff1565b9050919050565b6000819050919050565b613ac983613a94565b613add613ad582613ab6565b848454613a38565b825550505050565b600090565b613af2613ae5565b613afd818484613ac0565b505050565b5b81811015613b2157613b16600082613aea565b600181019050613b03565b5050565b601f821115613b6657613b3781613a06565b613b4084613a1b565b81016020851015613b4f578190505b613b63613b5b85613a1b565b830182613b02565b50505b505050565b600082821c905092915050565b6000613b8960001984600802613b6b565b1980831691505092915050565b6000613ba28383613b78565b9150826002028217905092915050565b613bbb82612f3f565b67ffffffffffffffff811115613bd457613bd3613486565b5b613bde8254613777565b613be9828285613b25565b600060209050601f831160018114613c1c5760008415613c0a578287015190505b613c148582613b96565b865550613c7c565b601f198416613c2a86613a06565b60005b82811015613c5257848901518255600182019150602085019450602081019050613c2d565b86831015613c6f5784890151613c6b601f891682613b78565b8355505b6001600288020188555050505b505050505050565b7f4e487b7100000000000000000000000000000000000000000000000000000000600052601160045260246000fd5b6000613cbe82612ff1565b9150613cc983612ff1565b9250828201905080821115613ce157613ce0613c84565b5b92915050565b600081519050919050565b600082825260208201905092915050565b6000613d0e82613ce7565b613d188185613cf2565b9350613d28818560208601612f5b565b613d3181612f85565b840191505092915050565b6000608082019050613d516000830187613086565b613d5e6020830186613086565b613d6b604083018561323c565b8181036060830152613d7d8184613d03565b905095945050505050565b600081519050613d9781612eb0565b92915050565b600060208284031215613db357613db2612e7a565b5b6000613dc184828501613d88565b91505092915050565b60008083356001602003843603038112613de757613de661396c565b5b80840192508235915067ffffffffffffffff821115613e0957613e08613971565b5b602083019250600182023603831315613e2557613e24613976565b5b509250929050565b6000604082019050613e426000830185613086565b613e4f602083018461323c565b9392505050565b6000604082019050613e6b6000830185613086565b613e7860208301846131d2565b9392505050565b7f4e487b7100000000000000000000000000000000000000000000000000000000600052601260045260246000fd5b600081905092915050565b6000613ec58385613eae565b9350613ed2838584613532565b82840190509392505050565b6000613eeb828486613eb9565b91508190509392505050565b6000608082019050613f0c60008301876131d2565b613f19602083018661323c565b613f26604083018561323c565b613f3360608301846131d2565b95945050505050565b7f4e487b7100000000000000000000000000000000000000000000000000000000600052602160045260246000fd5b600060ff82169050919050565b613f8181613f6b565b82525050565b6000608082019050613f9c60008301876131d2565b613fa96020830186613f78565b613fb660408301856131d2565b613fc360608301846131d2565b95945050505050565b600060a082019050613fe160008301886131d2565b613fee60208301876131d2565b613ffb60408301866131d2565b614008606083018561323c565b6140156080830184613086565b969550505050505056fea264697066735822122008571cf9efd9aff691acff6503450e2c7b290678b9fee74a59790d11a00f754c64736f6c63430008140033",
  "linkReferences": {},
  "deployedLinkReferences": {}
}