{
  "_format": "hh-sol-artifact-1",
  "contractName": "LuxuryReward",
  "sourceName": "contracts/LuxuryReward.sol",
  "abi": [
    {
      "inputs": [
        {
          "internalType": "address",
          "name": "mintContractAddress",
          "type": "address"
        }
      ],
      "stateMutability": "nonpayable",
      "type": "constructor"
    },
    {
      "inputs": [
        {
          "internalType": "address",
          "name": "owner",
          "type": "address"
        }
      ],
      "name": "OwnableInvalidOwner",
      "type": "error"
    },
    {
      "inputs": [
        {
          "internalType": "address",
          "name": "account",
          "type": "address"
        }
      ],
      "name": "OwnableUnauthorizedAccount",
      "type": "error"
    },
    {
      "anonymous": false,
      "inputs": [
        {
          "indexed": true,
          "internalType": "address",
          "name": "sender",
          "type": "address"
        },
        {
          "indexed": false,
          "internalType": "uint256",
          "name": "amount",
          "type": "uint256"
        }
      ],
      "name": "EthReceived",
      "type": "event"
    },
    {
      "anonymous": false,
      "inputs": [
        {
          "indexed": true,
          "internalType": "address",
          "name": "previousOwner",
          "type": "address"
        },
        {
          "indexed": true,
          "internalType": "address",
          "name": "newOwner",
          "type": "address"
        }
      ],
      "name": "OwnershipTransferred",
      "type": "event"
    },
    {
      "inputs": [
        {
          "internalType": "uint256",
          "name": "",
          "type": "uint256"
        }
      ],
      "name": "accounts",
      "outputs": [
        {
          "internalType": "address",
          "name": "",
          "type": "address"
        }
      ],
      "stateMutability": "view",
      "type": "function"
    },
    {
      "inputs": [
        {
          "internalType": "address",
          "name": "account",
          "type": "address"
        },
        {
          "internalType": "uint256",
          "name": "totalNFTs",
          "type": "uint256"
        }
      ],
      "name": "claimRewards",
      "outputs": [
        {
          "internalType": "uint256",
          "name": "",
          "type": "uint256"
        }
      ],
      "stateMutability": "nonpayable",
      "type": "function"
    },
    {
      "inputs": [],
      "name": "claimer",
      "outputs": [
        {
          "internalType": "address",
          "name": "",
          "type": "address"
        }
      ],
      "stateMutability": "view",
      "type": "function"
    },
    {
      "inputs": [],
      "name": "getEthAmount",
      "outputs": [
        {
          "internalType": "uint256",
          "name": "",
          "type": "uint256"
        }
      ],
      "stateMutability": "view",
      "type": "function"
    },
    {
      "inputs": [
        {
          "internalType": "uint256",
          "name": "id",
          "type": "uint256"
        }
      ],
      "name": "getOwnerOfTokenId",
      "outputs": [
        {
          "internalType": "address",
          "name": "",
          "type": "address"
        }
      ],
      "stateMutability": "view",
      "type": "function"
    },
    {
      "inputs": [
        {
          "internalType": "address",
          "name": "",
          "type": "address"
        }
      ],
      "name": "holder_NFTs",
      "outputs": [
        {
          "internalType": "uint256",
          "name": "",
          "type": "uint256"
        }
      ],
      "stateMutability": "view",
      "type": "function"
    },
    {
      "inputs": [
        {
          "internalType": "address",
          "name": "",
          "type": "address"
        }
      ],
      "name": "holder_Rewards",
      "outputs": [
        {
          "internalType": "uint256",
          "name": "",
          "type": "uint256"
        }
      ],
      "stateMutability": "view",
      "type": "function"
    },
    {
      "inputs": [],
      "name": "owner",
      "outputs": [
        {
          "internalType": "address",
          "name": "",
          "type": "address"
        }
      ],
      "stateMutability": "view",
      "type": "function"
    },
    {
      "inputs": [],
      "name": "renounceOwnership",
      "outputs": [],
      "stateMutability": "nonpayable",
      "type": "function"
    },
    {
      "inputs": [
        {
          "internalType": "uint256",
          "name": "day",
          "type": "uint256"
        }
      ],
      "name": "setDurationInDay",
      "outputs": [],
      "stateMutability": "nonpayable",
      "type": "function"
    },
    {
      "inputs": [],
      "name": "startReward",
      "outputs": [],
      "stateMutability": "nonpayable",
      "type": "function"
    },
    {
      "inputs": [
        {
          "internalType": "address",
          "name": "newOwner",
          "type": "address"
        }
      ],
      "name": "transferOwnership",
      "outputs": [],
      "stateMutability": "nonpayable",
      "type": "function"
    },
    {
      "stateMutability": "payable",
      "type": "receive"
    }
  ],
  "bytecode": "0x60806040523480156200001157600080fd5b50604051620018263803806200182683398181016040528101906200003791906200024e565b33600073ffffffffffffffffffffffffffffffffffffffff168173ffffffffffffffffffffffffffffffffffffffff1603620000ad5760006040517f1e4fbdf7000000000000000000000000000000000000000000000000000000008152600401620000a4919062000291565b60405180910390fd5b620000be816200012060201b60201c565b50600060048190555080600160006101000a81548173ffffffffffffffffffffffffffffffffffffffff021916908373ffffffffffffffffffffffffffffffffffffffff160217905550426002819055506201518060038190555050620002ae565b60008060009054906101000a900473ffffffffffffffffffffffffffffffffffffffff169050816000806101000a81548173ffffffffffffffffffffffffffffffffffffffff021916908373ffffffffffffffffffffffffffffffffffffffff1602179055508173ffffffffffffffffffffffffffffffffffffffff168173ffffffffffffffffffffffffffffffffffffffff167f8be0079c531659141344cd1fd0a4f28419497f9722a3daafe3b4186f6b6457e060405160405180910390a35050565b600080fd5b600073ffffffffffffffffffffffffffffffffffffffff82169050919050565b60006200021682620001e9565b9050919050565b620002288162000209565b81146200023457600080fd5b50565b60008151905062000248816200021d565b92915050565b600060208284031215620002675762000266620001e4565b5b6000620002778482850162000237565b91505092915050565b6200028b8162000209565b82525050565b6000602082019050620002a8600083018462000280565b92915050565b61156880620002be6000396000f3fe6080604052600436106100ab5760003560e01c80639baee1d8116100645780639baee1d81461025f578063a0b7646d14610288578063b07c926d146102c5578063d379be2314610302578063f2a40db81461032d578063f2fde38b1461036a5761015c565b8063087d01df1461016157806348688b3c1461018c578063715018a6146101c9578063746c8ae1146101e05780638da5cb5b146101f75780639a99b4f0146102225761015c565b3661015c57600034116100f3576040517f08c379a00000000000000000000000000000000000000000000000000000000081526004016100ea90610ff2565b60405180910390fd5b3460046000828254610105919061104b565b925050819055503373ffffffffffffffffffffffffffffffffffffffff167f85177f287940f2f05425a4029951af0e047a7f9c4eaa9a6e6917bcd869f8669534604051610152919061108e565b60405180910390a2005b600080fd5b34801561016d57600080fd5b50610176610393565b604051610183919061108e565b60405180910390f35b34801561019857600080fd5b506101b360048036038101906101ae91906110da565b6103b5565b6040516101c09190611148565b60405180910390f35b3480156101d557600080fd5b506101de61045a565b005b3480156101ec57600080fd5b506101f561046e565b005b34801561020357600080fd5b5061020c61047f565b6040516102199190611148565b60405180910390f35b34801561022e57600080fd5b506102496004803603810190610244919061118f565b6104a8565b604051610256919061108e565b60405180910390f35b34801561026b57600080fd5b50610286600480360381019061028191906110da565b610c95565b005b34801561029457600080fd5b506102af60048036038101906102aa91906111cf565b610d0d565b6040516102bc919061108e565b60405180910390f35b3480156102d157600080fd5b506102ec60048036038101906102e791906111cf565b610d25565b6040516102f9919061108e565b60405180910390f35b34801561030e57600080fd5b50610317610d3d565b6040516103249190611148565b60405180910390f35b34801561033957600080fd5b50610354600480360381019061034f91906110da565b610d63565b6040516103619190611148565b60405180910390f35b34801561037657600080fd5b50610391600480360381019061038c91906111cf565b610d96565b005b60006064605f6004546103a691906111fc565b6103b0919061126d565b905090565b6000600160009054906101000a900473ffffffffffffffffffffffffffffffffffffffff1673ffffffffffffffffffffffffffffffffffffffff16636352211e836040518263ffffffff1660e01b8152600401610412919061108e565b602060405180830381865afa15801561042f573d6000803e3d6000fd5b505050506040513d601f19601f8201168201806040525081019061045391906112b3565b9050919050565b610462610e1c565b61046c6000610ea3565b565b610476610e1c565b42600281905550565b60008060009054906101000a900473ffffffffffffffffffffffffffffffffffffffff16905090565b6000803a905060006152089050600081836104c391906111fc565b90506000816004546104d591906112e0565b905086600860006101000a81548173ffffffffffffffffffffffffffffffffffffffff021916908373ffffffffffffffffffffffffffffffffffffffff160217905550600073ffffffffffffffffffffffffffffffffffffffff168773ffffffffffffffffffffffffffffffffffffffff1603610587576040517f08c379a000000000000000000000000000000000000000000000000000000000815260040161057e90611360565b60405180910390fd5b60008111806105f75750600060076000600860009054906101000a900473ffffffffffffffffffffffffffffffffffffffff1673ffffffffffffffffffffffffffffffffffffffff1673ffffffffffffffffffffffffffffffffffffffff16815260200190815260200160002054145b610636576040517f08c379a000000000000000000000000000000000000000000000000000000000815260040161062d906113f2565b60405180910390fd5b600080600190505b8781116108c757600073ffffffffffffffffffffffffffffffffffffffff16600160009054906101000a900473ffffffffffffffffffffffffffffffffffffffff1673ffffffffffffffffffffffffffffffffffffffff16636352211e836040518263ffffffff1660e01b81526004016106b8919061108e565b602060405180830381865afa1580156106d5573d6000803e3d6000fd5b505050506040513d601f19601f820116820180604052508101906106f991906112b3565b73ffffffffffffffffffffffffffffffffffffffff16146108b3576000600160009054906101000a900473ffffffffffffffffffffffffffffffffffffffff1673ffffffffffffffffffffffffffffffffffffffff16636352211e836040518263ffffffff1660e01b8152600401610771919061108e565b602060405180830381865afa15801561078e573d6000803e3d6000fd5b505050506040513d601f19601f820116820180604052508101906107b291906112b3565b90506000600560008373ffffffffffffffffffffffffffffffffffffffff1673ffffffffffffffffffffffffffffffffffffffff168152602001908152602001600020540361085c57806009600084815260200190815260200160002060006101000a81548173ffffffffffffffffffffffffffffffffffffffff021916908373ffffffffffffffffffffffffffffffffffffffff160217905550828061085890611412565b9350505b600560008273ffffffffffffffffffffffffffffffffffffffff1673ffffffffffffffffffffffffffffffffffffffff16815260200190815260200160002060008154809291906108ac90611412565b9190505550505b6001816108c0919061104b565b905061063e565b506000600190505b818111610a00576000600560006009600085815260200190815260200160002060009054906101000a900473ffffffffffffffffffffffffffffffffffffffff1673ffffffffffffffffffffffffffffffffffffffff1673ffffffffffffffffffffffffffffffffffffffff168152602001908152602001600020548985610957919061126d565b61096191906111fc565b905080600760006009600086815260200190815260200160002060009054906101000a900473ffffffffffffffffffffffffffffffffffffffff1673ffffffffffffffffffffffffffffffffffffffff1673ffffffffffffffffffffffffffffffffffffffff16815260200190815260200160002060008282546109e5919061104b565b925050819055505080806109f890611412565b9150506108cf565b50600060076000600860009054906101000a900473ffffffffffffffffffffffffffffffffffffffff1673ffffffffffffffffffffffffffffffffffffffff1673ffffffffffffffffffffffffffffffffffffffff1681526020019081526020016000205411610aa5576040517f08c379a0000000000000000000000000000000000000000000000000000000008152600401610a9c906114a6565b60405180910390fd5b600060076000600860009054906101000a900473ffffffffffffffffffffffffffffffffffffffff1673ffffffffffffffffffffffffffffffffffffffff1673ffffffffffffffffffffffffffffffffffffffff168152602001908152602001600020549050600060076000600860009054906101000a900473ffffffffffffffffffffffffffffffffffffffff1673ffffffffffffffffffffffffffffffffffffffff1673ffffffffffffffffffffffffffffffffffffffff168152602001908152602001600020541115610c4657600860009054906101000a900473ffffffffffffffffffffffffffffffffffffffff1673ffffffffffffffffffffffffffffffffffffffff166108fc829081150290604051600060405180830381858888f19350505050158015610bdd573d6000803e3d6000fd5b50600060076000600860009054906101000a900473ffffffffffffffffffffffffffffffffffffffff1673ffffffffffffffffffffffffffffffffffffffff1673ffffffffffffffffffffffffffffffffffffffff168152602001908152602001600020819055505b600860009054906101000a900473ffffffffffffffffffffffffffffffffffffffff1673ffffffffffffffffffffffffffffffffffffffff163160048190555080965050505050505092915050565b610c9d610e1c565b60008111610ce0576040517f08c379a0000000000000000000000000000000000000000000000000000000008152600401610cd790611512565b60405180910390fd5b603c80601883610cf091906111fc565b610cfa91906111fc565b610d0491906111fc565b60038190555050565b60056020528060005260406000206000915090505481565b60076020528060005260406000206000915090505481565b600860009054906101000a900473ffffffffffffffffffffffffffffffffffffffff1681565b60096020528060005260406000206000915054906101000a900473ffffffffffffffffffffffffffffffffffffffff1681565b610d9e610e1c565b600073ffffffffffffffffffffffffffffffffffffffff168173ffffffffffffffffffffffffffffffffffffffff1603610e105760006040517f1e4fbdf7000000000000000000000000000000000000000000000000000000008152600401610e079190611148565b60405180910390fd5b610e1981610ea3565b50565b610e24610f67565b73ffffffffffffffffffffffffffffffffffffffff16610e4261047f565b73ffffffffffffffffffffffffffffffffffffffff1614610ea157610e65610f67565b6040517f118cdaa7000000000000000000000000000000000000000000000000000000008152600401610e989190611148565b60405180910390fd5b565b60008060009054906101000a900473ffffffffffffffffffffffffffffffffffffffff169050816000806101000a81548173ffffffffffffffffffffffffffffffffffffffff021916908373ffffffffffffffffffffffffffffffffffffffff1602179055508173ffffffffffffffffffffffffffffffffffffffff168173ffffffffffffffffffffffffffffffffffffffff167f8be0079c531659141344cd1fd0a4f28419497f9722a3daafe3b4186f6b6457e060405160405180910390a35050565b600033905090565b600082825260208201905092915050565b7f45746820616d6f756e74206d757374206265206f766572207468616e207a657260008201527f6f00000000000000000000000000000000000000000000000000000000000000602082015250565b6000610fdc602183610f6f565b9150610fe782610f80565b604082019050919050565b6000602082019050818103600083015261100b81610fcf565b9050919050565b6000819050919050565b7f4e487b7100000000000000000000000000000000000000000000000000000000600052601160045260246000fd5b600061105682611012565b915061106183611012565b92508282019050808211156110795761107861101c565b5b92915050565b61108881611012565b82525050565b60006020820190506110a3600083018461107f565b92915050565b600080fd5b6110b781611012565b81146110c257600080fd5b50565b6000813590506110d4816110ae565b92915050565b6000602082840312156110f0576110ef6110a9565b5b60006110fe848285016110c5565b91505092915050565b600073ffffffffffffffffffffffffffffffffffffffff82169050919050565b600061113282611107565b9050919050565b61114281611127565b82525050565b600060208201905061115d6000830184611139565b92915050565b61116c81611127565b811461117757600080fd5b50565b60008135905061118981611163565b92915050565b600080604083850312156111a6576111a56110a9565b5b60006111b48582860161117a565b92505060206111c5858286016110c5565b9150509250929050565b6000602082840312156111e5576111e46110a9565b5b60006111f38482850161117a565b91505092915050565b600061120782611012565b915061121283611012565b925082820261122081611012565b915082820484148315176112375761123661101c565b5b5092915050565b7f4e487b7100000000000000000000000000000000000000000000000000000000600052601260045260246000fd5b600061127882611012565b915061128383611012565b9250826112935761129261123e565b5b828204905092915050565b6000815190506112ad81611163565b92915050565b6000602082840312156112c9576112c86110a9565b5b60006112d78482850161129e565b91505092915050565b60006112eb82611012565b91506112f683611012565b925082820390508181111561130e5761130d61101c565b5b92915050565b7f4164647265737320697320696e7661696c640000000000000000000000000000600082015250565b600061134a601283610f6f565b915061135582611314565b602082019050919050565b600060208201905081810360008301526113798161133d565b9050919050565b7f54686572652069736e277420616e792045544820616d6f756e747320746f206760008201527f69766520726577617264732e0000000000000000000000000000000000000000602082015250565b60006113dc602c83610f6f565b91506113e782611380565b604082019050919050565b6000602082019050818103600083015261140b816113cf565b9050919050565b600061141d82611012565b91507fffffffffffffffffffffffffffffffffffffffffffffffffffffffffffffffff820361144f5761144e61101c565b5b600182019050919050565b7f4e6f207265776172647320666f722063757272656e7420636c61696d65722e00600082015250565b6000611490601f83610f6f565b915061149b8261145a565b602082019050919050565b600060208201905081810360008301526114bf81611483565b9050919050565b7f4475726174696f6e206d757374206265206f766572207a65726f000000000000600082015250565b60006114fc601a83610f6f565b9150611507826114c6565b602082019050919050565b6000602082019050818103600083015261152b816114ef565b905091905056fea26469706673582212203988a4e08e990f6264d56fc65be7325a4406c8cf5477d07183cf7c923e206add64736f6c63430008140033",
  "linkReferences": {},
  "deployedLinkReferences": {}
}